:100000000C94A4010C94EB010C94EB010C94EB0107
:100010000C94EB010C94EB010C94EB010C94EB01B0
:100020000C94EB010C94EB010C94FB1C0C94CD1D77
:100030000C94DC130C94EB010C94EB010C94EB018D
:100040000C94EB010C94EB010C94EB010C94EB0180
:100050000C94EB010C9429140C94EB010C94EB011F
:100060000C94EB010C94EB010C94EB010C94EB0160
:100070000C94EB010C94EB010C94EB010C94EB0150
:100080000C94EB010C94EB010C94EB010C94EB0140
:100090000C94EB010C94EB010C94EB010C94EB0130
:1000A0000C94EB010C94EB010C94EB01820A820A94
:1000B000B40AB40A010B210B3D0C3D0C2C0BCD0BEB
:1000C000DE0BDE0BD90CD90CEB0CEB0CE20CEB0CC1
:1000D000EB0CEB0CD90CD90CE70CEB0CEB0CE70C94
:1000E0003A1E611E531F611E531FAD1ED01E531FAB
:1000F000261F351F35001E001F0020002100220092
:10010000230024002500260027002D002E00890052
:100110002B0014001A000800150017001C0018001E
:100120000C00120013002F0030002A0039000400D8
:100130001600070009000A000B000D000E000F005A
:100140003300340031002800E1001D001B000600D0
:100150001900050011001000360037003800870034
:10016000E5000000E000E300E2008B004C412C00C1
:1001700028412A418A008841E6006500E400000029
:1001800029003A003B003C003D003E003F0040009B
:100190004100420043004400450089002B004B0011
:1001A00052004E004A0017001C0018000C001200FC
:1001B00013002F0030004C003900500051004F0058
:1001C0004D0049005000510052004F0033003400F0
:1001D00031004600E1001D001B0006001900005C14
:1001E000110010003600370038005200E500000012
:1001F000E000E300E2008B000100010001000100CB
:100200008A000100500051004F000000040330003C
:1002100000000A0376003100700031000000160370
:10022000740061006B006100730068006900730076
:100230006B00690000000403090409023B0002018D
:1002400000A0FA09040000010301010009211101C5
:1002500000012240000705810308000A090401008B
:10026000010300000009211101000122810007059E
:10027000820320000A1201100100000008EDFE00B8
:100280000001000102030105010902A10185020923
:1002900001A100050919012905150025019505751C
:1002A00001810295017503810105010930093115AC
:1002B00081257F95027508810609381581257F956E
:1002C0000175088106050C0A38021581257F950104
:1002D00075088106C0C005010980A10185031901C7
:1002E0002AB700150126B700950175108100C005D9
:1002F0000C0901A101850419012AA002150126A0FB
:1003000002950175108100C005010906A1010507CC
:1003100019E029E71500250195087501810295016D
:10032000750881010507190029FF150026FF0095B2
:1003300006750881000508190129059505750191C3
:1003400002950175039101C011241FBECFEFDAE0C1
:10035000DEBFCDBF04B603FE27C080915F0290913F
:100360006002A0916102B09162028730904BA74079
:10037000B04BD1F410925F021092600210926102B1
:100380001092620214BE84B7877F84BF0FB6F894C0
:10039000A895809160008861809360001092600051
:1003A0000FBEE0E0F8E3099511E0A0E0B1E0E2EF74
:1003B000FFE302C005900D92AA38B107D9F722E0F9
:1003C000AAE8B1E001C01D92AF35B207E1F70E9483
:1003D000241A0C94F71F0C94000081E0089581E02A
:1003E00008950C94ED0108950C94F3011F93CF939D
:1003F000DF9300D000D01F92CDB7DEB749835A8378
:100400003091A20189819A81311114C0662359F07B
:10041000222349F00E946711182F682F89819A8141
:100420000E940C1103C00E943B11182F69817A8130
:10043000812F04C00E94671169817A810F900F900B
:100440000F900F900F90DF91CF911F910C94A3020A
:10045000FC01262F408151816281738184810C943B
:10046000F601CF93DF93EC0160E00E942802BE0109
:10047000DF91CF910C94F4010E948A12811102C085
:100480000E9434130C948D040C94900408950C94E1
:10049000460281E008950C944902CF93C82F0E9430
:1004A00047028C2F0E944B02CF91089508950E941D
:1004B000C90C0E9456022FEF84E39CE0215080403B
:1004C0009040E1F700C000000C944F140F931F936D
:1004D000CF93DF93EC0161E00E9428028C01BE0102
:1004E0000E94F101882349F1BE01C8010E941D0646
:1004F000882319F1BE01C8010E945E068823E9F035
:10050000BE01C8010E9489078823B9F08A81882327
:1005100069F001158CE5180731F00E3D1C4531F4EA
:100520000E9434130AC00E94570207C0CE01DF9117
:10053000CF911F910F910C94EF0180E0DF91CF914B
:100540001F910F9108959EE0799FF001112496E488
:10055000899FE00DF11D1124E60FF11DEE0FFF1F25
:10056000EC50FF4F859194910895CF93DF930E94B3
:10057000A3020E94B503EC01811521E5920708F062
:1005800043C0811560E5960708F089C0883E910553
:1005900020F5803E910508F0E4C0883A910570F49A
:1005A000853A910508F073C08130910509F4D9C0EE
:1005B00008F4D5C0049708F0D4C0D1C08F3B910592
:1005C00008F0CDC0C85AD0E0CC0FDD1FCB5EDE4FA7
:1005D0000990D881C02DD464C4C0C11580E2D80769
:1005E00058F4C11591E0D90708F0BBC0C03FD10550
:1005F00008F4B5C0D065B5C0C11520E4D20708F431
:10060000AEC0DF70D06AADC0811565E59607A0F475
:10061000C11584E5D80708F089C0C11593E5D9074D
:1006200008F06EC0C11522E5D20708F053C0DC2FD8
:10063000CC27C16FD06A95C0811569E59607A0F4F3
:10064000C11588E5D80708F076C0C11596E5D90729
:1006500008F085C08C2F0E9449048F71C82FD0E00C
:10066000DC2FCC27D0627DC081152AE5920708F4E3
:1006700067C090568115904208F071C08D2F8F7120
:100680000E944904DD27D0628F71D82B6AC0C55AF9
:10069000D0E0CD5BDE4FC881D0E0D06462C0837013
:1006A00021E030E002C0220F331F8A95E2F73C6858
:1006B000CE0174E0969587957A95E1F78370382B93
:1006C000CF70C695C69580E2C89FE0011124C22B69
:1006D000D32B47C04C2F4695469590E2499FA001E9
:1006E0001124C370DD2721E030E0C90102C0880F6A
:1006F000991FCA95E2F7EC01C42BD52BDC6831C0F9
:100700004C2F4695469580E2489FA0011124C37066
:10071000DD2721E030E0C90102C0880F991FCA958A
:10072000E2F7EC01C42BD52BDA681BC0DC2FCC27F9
:10073000C46FD06A16C0DC2FCC27C06FD06A11C03E
:100740008F700E94490494E0D695C7959A95E1F779
:10075000CF70D0E0DC2FCC27D069C82B02C0C0E01E
:10076000D0E0CE01DF91CF9108958238910569F1F3
:10077000B0F48133910509F46DC048F489329105D4
:1007800009F463C08A32910509F469C0089585337C
:10079000910509F455C089339105B9F00895833E58
:1007A000910569F138F4803E9105B1F0823E9105E2
:1007B00009F10895863E9105A9F1873E9105B9F1A9
:1007C000843E910509F064C023C02091500220FDB1
:1007D0004FC021FD4DC008958091500280FD44C05E
:1007E0008091510280FF44C08091500284FD42C03C
:1007F00083EE4DC08091500282FF38C0F5CF8091CA
:10080000500282FD33C08091510280FD31C0ECCF97
:100810008091510281FF32C08091500284FD2AC034
:1008200087EE35C08091500283FF26C0F5CF8091BE
:10083000500283FD21C08091510281FD1FC0ECCF89
:100840008091500285FD1CC01DC08091500285FD25
:1008500019C016C08091500286FD16C017C0809145
:10086000500286FD13C010C089E311C082EE0FC094
:1008700080EE0DC080E00BC086EE09C084EE07C09C
:1008800089E205C085E303C08AE201C081E390E00C
:1008900008959091500292FF0DC0282F28712830A2
:1008A00019F4877F846006C0282F2471243011F446
:1008B0008B7F886093FF0DC0282F2871283119F491
:1008C000877E846106C0282F2471243111F48B7E29
:1008D00088612091510220FF0DC0382F38713830C7
:1008E00019F4877F816006C0382F3171313011F4DF
:1008F0008E7F886021FF0DC0282F2871283119F4C0
:10090000877E816106C0282F2171213111F48E7EEE
:10091000886194FD877E089508950C948C04089551
:100920000C948F04E82FF0E0EE0FFF1FEE5BFD4FFD
:10093000808191810895089580EA8A95F1F708955C
:10094000A4E5B1E041E050E025E02A0F8D91E82FC9
:10095000E295EF70F0E031A18F70BA0102C0660F2E
:10096000771F8A95E2F7CB01962F9095932391A359
:1009700092A1892B82A32A13E9CFA6E4B1E041E03A
:1009800050E02EE02A0F8D91E82FE295EF70F0E015
:1009900031A18F70BA0102C0660F771F8A95E2F706
:1009A000CB01962F9095932391A392A1892B82A39B
:1009B0002A13E9CFE8E3F2E0A2E4B2E01192119247
:1009C0001D921D9272E0E234F707C1F785E00E94A4
:1009D00075050C943C027F928F929F92AF92BF92CA
:1009E000CF92DF92EF92FF920F931F93CF93DF93FB
:1009F00088E3A82E82E0B82E94E5C92E91E0D92E86
:100A0000F12C88248394912C35E0732E7C0CF60114
:100A100081916F01C82FC295CF70D0E099A18F70DE
:100A2000840101C0000F8A95EAF7892F802B89A3E2
:100A30008AA1E02EE0948E218AA30E949C04E6E421
:100A4000F1E020E030E080E090E06191A62FA295F7
:100A5000AF70B0E090964C9150E06F7002C0559529
:100A600047956A95E2F740FD08C0A401022E02C036
:100A7000440F551F0A94E2F702C040E050E0842B77
:100A8000952B2F5F3F4F2E303105F9F629A1E22239
:100A9000E9A22AA1022B0AA3F501219131915F015C
:100AA0002817390729F032979183808381E001C0AC
:100AB00080E0F82A7C10ABCF2F2D45E062E472E095
:100AC00088E392E00E9476050E9444028F2DDF9118
:100AD000CF911F910F91FF90EF90DF90CF90BF903B
:100AE000AF909F908F907F9008950895FF920F93FD
:100AF0001F93CF93DF93F82E092F162FD72FC42FD4
:100B0000222349F081E080938C010E940E1490937F
:100B10008B0180938A0180918C018823D9F0809188
:100B20008A0190918B010E941A14069798F0EF2D7C
:100B3000F02FA12FBD2F80E090E04C2F50E08417C4
:100B4000950734F4219131912D933D930196F7CF80
:100B500010928C01DF91CF911F910F91FF9008951A
:100B60000F931F93CF93DF93C62FD42F022FFC0137
:100B700082818823C9F060938F010E940E149093A4
:100B80008E0180938D0180E28C0F883008F050C078
:100B9000C77081E001C0880FCA95EAF7DF91CF9155
:100BA0001F910F910C94390A10918F01161330C0C8
:100BB00080918D0190918E010E941A14883C9105BC
:100BC00038F5C0E2CD0F1D17B9F080E2810F8830F3
:100BD00040F4177081E001C0880F1A95EAF70E946F
:100BE000400AC83048F481E09D2F977001C0880FFB
:100BF0009A95EAF70E94390A802F0E94260AC83087
:100C0000B8F4D77081E001C0880FDA95EAF70AC01E
:100C100080E28C0F883060F4C77081E001C0880FDB
:100C2000CA95EAF7DF91CF911F910F910C94400A7A
:100C3000DF91CF911F910F9108959C01CB01233F2C
:100C40004CE53407F9F078F4283DFCE53F07B9F0AE
:100C5000293D4CE5340711F1273D3C4531F526E2AD
:100C600041EE61EE1EC0253FFCE53F0799F070F0B4
:100C7000263F3C45D1F427E245EE66EE12C027E25E
:100C800045EE0EC026E241EE60EE0BC027E245EED7
:100C900064EE07C026E241EE62EE03C028E241E0C6
:100CA00065EE0E94B00580E00895FC0182818823F2
:100CB00019F010928F01089581E00895CF93DF938A
:100CC000EC01FB018281882309F41FC1C230FCE5DD
:100CD000DF0708F41BC1C6319CE5D90738F09E0137
:100CE0002A5F3C452930310508F010C10E94A71247
:100CF0009093510280935002C031ECE5DE0709F475
:100D0000C3C008F041C0C8308CE5D80709F49AC0C8
:100D1000F0F4C430ECE5DE0709F487C068F4C230B3
:100D20008CE5D80709F477C0C330DC4509F0E3C08F
:100D300080915002826076C0C630ECE5DE0709F48F
:100D40006EC008F07BC08091500288606BC0CC30D0
:100D50008CE5D80709F485C068F4CA30ECE5DE07F5
:100D600009F474C008F079C00E94C90C8091500247
:100D7000806858C0CE308CE5D80709F476C008F0FA
:100D80007FC0809150028BC0CB3FECE5DE0709F4B9
:100D90004FC018F5C3318CE5D80709F47DC078F44D
:100DA000C131ECE5DE0709F473C0C231DC4509F05E
:100DB000A2C00E94C90C809150028F7733C0C53108
:100DC0008CE5D80709F472C008F486C0CA3FDC4538
:100DD00009F091C0809151023EC0CF3FFCE5DF0792
:100DE00009F45FC058F4CD3F9CE5D90709F444C02D
:100DF00008F43FC08091510282602DC0C130FDE5F2
:100E0000DF0709F475C008F45DC0C230DD4509F0A4
:100E100072C080E06EC080915002816003C08091FA
:100E2000500280618093500266C08091500211C0D0
:100E3000809151028260809351025DC08091500286
:100E40008062F0CF809150028064ECCF809150029C
:100E500088608460E7CF8160EECF809150028E7F02
:100E6000E1CF809150028D7FDDCF80915002877F4E
:100E7000D9CF8091510218C0809151028D7FDBCF74
:100E8000809150028F7ECECF809150028F7DCACF4D
:100E9000809150028F7BC6CF80915002877F8B7FDD
:100EA000C1CF809151028D7F8E7FC5CF809150023E
:100EB00082FB222720F991E0922790FB82F990FB98
:100EC00083F9B0CF80915102982F909591708E7FC9
:100ED000892B90FB81F9AFCF0E94C90C8091500201
:100EE00087FB222720F991E0922790FB87F99ACF80
:100EF00081E00E94361380915002909151020E942D
:100F0000B8120E94C90C80E001C081E0DF91CF914E
:100F10000895CF93DF9386319C4541F5EB010E9404
:100F2000E711282F8A814091000150910101882307
:100F300079F02A7A91E009F490E090939001911170
:100F400002C069E201C065E3CA010E947C130AC0C5
:100F500080919001811102C069E201C065E3CA017C
:100F60000E947E130E94261280E001C081E0DF9182
:100F7000CF91089590939601809395010895E09103
:100F80009501F0919601309721F00190F081E02DCC
:100F9000099480E00895E0919501F09196013097D1
:100FA00021F00280F381E02D09940895E0919501EC
:100FB000F0919601309739F022E0DC012C93048007
:100FC000F581E02D099408952091930130919401C9
:100FD0008217930771F09093940180939301E091AD
:100FE0009501F0919601309721F00680F781E02D70
:100FF00009940895209191013091920182179307ED
:1010000071F09093920180939101E0919501F0919C
:101010009601309721F00084F185E02D0994089520
:1010200085B7806885BF85B7806885BF08950895B6
:1010300008950C94180808950C941B080E94100839
:101040000E9417080C94190881E008950C94240854
:101050000E9405140E94A0040E94BF140C941C0856
:101060007F928F929F92AF92BF92CF92DF92EF9238
:10107000FF920F931F93CF93DF93CDB7DEB72A97DD
:101080000FB6F894DEBF0FBECDBF0E94EB040E94E6
:101090002608811111C08FEF89838A831B820E94E9
:1010A0000E148160782F9D838C8349815A816B81D6
:1010B0008D810E94E0084FC038E9832E31E0932EE5
:1010C00000E010E0702E802F0E9492046C01F40169
:1010D000A190B1904F01A826B926A114B10431F412
:1010E0000F5F1F4F0530110569F7D5CF80911D02A5
:1010F00081FD0E949B0490E0EE24E394F12C970183
:101100002A213B21232B09F19E837F82CE20DF20E1
:1011100091E0CD2809F490E098870E940E14816038
:10112000782F9A8789874E815F8168858A850E949A
:10113000E008000F111FF801E856FE4F80819181F1
:10114000E826F926F182E08206C09F5FEE0CFF1CC4
:101150009E30A9F6C5CF0E947317109197010E9487
:10116000BF071817C9F00E94BF07809397012A96FE
:101170000FB6F894DEBF0FBECDBFDF91CF911F91A8
:101180000F91FF90EF90DF90CF90BF90AF909F9026
:101190008F907F900C944D022A960FB6F894DEBF84
:1011A0000FBECDBFDF91CF911F910F91FF90EF90B8
:1011B000DF90CF90BF90AF909F908F907F900895D9
:1011C000CF93DF93CDB7DEB72B970FB6F894DEBF82
:1011D0000FBECDBF4F83588769877A878B87DE0123
:1011E000119686E0FD0111928A95E9F785E0FE01EE
:1011F000379601900D928A95E1F749815A816B816A
:101200007C818D819E810E94590F2B960FB6F89498
:10121000DEBF0FBECDBFDF91CF910895FC0180816D
:1012200091810E94A8110895CF93882309F4A4C046
:10123000C82F8238C1F40E94BF0781FD9DC069E3B9
:1012400080910001909101010E947C130E9426125E
:101250002FEF81EE94E0215080409040E1F700C0F4
:10126000000069E319C0833801F50E94BF0780FDC3
:1012700083C063E580910001909101010E947C137D
:101280000E9426122FEF81EE94E021508040904082
:10129000E1F700C0000063E5809100019091010139
:1012A0000E947E13CF910C9426128438C1F40E94C0
:1012B000BF0782FD61C067E4809100019091010148
:1012C0000E947C130E9426122FEF81EE94E02150A1
:1012D00080409040E1F700C0000067E4DDCF8CEF74
:1012E0008C0F813AD0F46C2F809100019091010114
:1012F0000E944713882349F06C2F80910001909140
:1013000001010E947E130E9426126C2F8091000121
:10131000909101010E947C13C5CF80E28C0F883030
:1013200048F4C77081E001C0880FCA95EAF70E94AF
:10133000EA11B8CFEBE5EC0FE33040F4F0E0E95709
:10134000FE4F808190E0CF910C94E407E8E5EC0F2C
:10135000E73150F4F0E0EE0FFF1FE75AFE4F8081B7
:101360009181CF910C94FA07C03F30F08C2F0E94EE
:101370007B16CF910C946817CF910895882309F4B8
:1013800064C0823879F40E94BF0781FF5EC069E3C0
:1013900080910001909101010E947C130E9426120D
:1013A00069E310C08338B1F40E94BF0780FF4DC0CD
:1013B00063E580910001909101010E947C130E94DD
:1013C000261263E580910001909101010E947E1335
:1013D0000C942612843879F40E94BF0782FF35C02E
:1013E00067E480910001909101010E947C130E94AA
:1013F000261267E4E7CF9CEF980F913A10F4682F1C
:10140000E1CF90E2980F983050F4877091E001C0DE
:10141000990F8A95EAF7892F0E94F011D9CF9BE5A1
:10142000980F933020F480E090E00C94E40798E566
:10143000980F973120F480E090E00C94FA07803FF9
:1014400020F00E94E3160C9468170895CF93C82FDC
:101450000E941409C93349F42FEF87EE93E021501D
:1014600080409040E1F700C000008C2FCF910C9499
:10147000BE09882321F00E94EA110C9426120895D7
:10148000882321F00E94F0110C9426120895BF9237
:10149000CF92DF92EF92FF920F931F93CF93DF9340
:1014A0007C01062FC72FFC01158112951F70D28178
:1014B000D1110E9407120E94E011882399F0DD23C8
:1014C00089F08C2F807F803421F080E2800F88307B
:1014D00048F082E00E9471120E94E01191E0B82E63
:1014E000B92601C0B12CCC2EC2948FE0C822D12CD9
:1014F000FCE0CF16D10408F0C0C1F601EA5AFF4F54
:101500000C949B1F8C2F807FCF70882311F0C29585
:10151000C07FDD2399F0CC2309F49BC180E2800FCA
:10152000883010F0011104C08C2F0E94EA1103C012
:101530008C2F0E94FA110E9426128BC1802F0E94CC
:10154000BE09CC2309F499C180E2800F883010F0E5
:10155000011104C08C2F0E94F01103C08C2F0E9437
:1015600000120E94261289C18C2F807FCF7080329A
:1015700011F0C295C07F002319F00130C9F022C0DC
:10158000DD2371F0112341F0113031F40E940D126E
:101590008C2B0E94131271C10E940D128C2B1DC046
:1015A000112319F0113009F468C10E941C1225C0E2
:1015B000DD2321F0163008F060C10EC0153008F0B0
:1015C0005CC11BC0DD2361F0112331F0F70185817F
:1015D00080FF3FC18F7085838C2F0E94390A4DC1D7
:1015E000112359F0093309F045C1FFEF17EE23E04D
:1015F000F15010402040E1F73BC18C2F0E94400A7F
:101600003CC18C2F86958695837090E0009719F0E9
:10161000019761F032C1DD2321F0802F9C2F937060
:1016200002C080E090E00E94E40732C1DD2321F097
:10163000802F9C2F937002C080E090E00E94FA07F8
:1016400027C1802FDD2319F00E947B1602C00E9463
:10165000E3160E9468171CC18C2F837009F04BC0E1
:10166000D11112C1202F229526952770220F220F0B
:10167000602F6F70862F90E0A0E0B0E0022E04C0D3
:10168000880F991FAA1FBB1F0A94D2F704FF10C02E
:101690004FE050E060E070E004C0440F551F661F4B
:1016A000771F2A95D2F7409550956095709503C0A5
:1016B00040E050E0BA01C695C695C370D0E08A01FB
:1016C0009B01082B192B2A2B3B2BC901B801C230D7
:1016D000D10559F0C330D10559F0219719F00E9476
:1016E0002110D2C00E940F10CFC00E943310CCC076
:1016F0000E940D10C9C0DD2319F08C2F817001C02C
:101700008695882309F4C0C0202F2295269527703E
:10171000220F220F602F6F70862F90E0A0E0B0E0C4
:10172000022E04C0880F991FAA1FBB1F0A94D2F76C
:1017300004FF10C04FE050E060E070E004C0440FD0
:10174000551F661F771F2A95D2F7409550956095D3
:10175000709503C040E050E0BA01C695C695C370CD
:10176000D0E08A019B01082B192B2A2B3B2BC901A6
:10177000B801C230D10559F0C330D10559F02197D5
:1017800019F00E94E71080C00E94D5107DC00E9411
:10179000F9107AC00E94481077C0CF70DD2339F06D
:1017A0008C2F0E946E10802F0E94390A6DC0802FEE
:1017B0000E94400A8C2F0E948F1066C0023F01F1E8
:1017C00028F4003F41F0013FA1F03FC0033FF9F092
:1017D000043F39F13AC0DD2341F0153008F04DC027
:1017E0008C2F8F710E94B41048C0163008F045C08D
:1017F000F7CFDD2339F08C2F8F710E946E103DC022
:10180000DD23C9F38C2F8F710E948F1036C0DD232A
:1018100029F08C2F8F710E9459102FC00E945410F4
:101820002CC0DD2349F0CF718C2F0E946E1063E035
:101830008C2F0E945C1221C081E00E947112123034
:10184000E0F082E00E94711218C0DD2331F0112314
:1018500091F2802F0E94140910C0112399F20933CC
:1018600049F41FEF27EE33E0115020403040E1F7FC
:1018700000C00000802F0E94BE0988E0C81AD1086D
:1018800094E0C916D10420F40E94BF070E944D02C3
:10189000BB20D1F00E94DC1180FD16C0F70112823E
:1018A0000E94D6110E946E10C7010E94860C0E94F1
:1018B000D611DF91CF911F910F91FF90EF90DF90A4
:1018C000CF90BF900C948F10DF91CF911F910F910B
:1018D000FF90EF90DF90CF90BF9008950F931F93EC
:1018E000CF93DF93EC01688179818A810E94B311E3
:1018F0008C010E940B110E940C10B801CE010E94B5
:10190000470ADF91CF911F910F910895CF93DF93F5
:10191000EC01888199812B813C81232BE9F09F3F49
:1019200011F48F3FC9F0CE010E94660281110CC0F4
:101930000E94E011882381F08A81882369F082E087
:10194000DF91CF910C947112CE010E946E0CCE01EA
:10195000DF91CF910C943102DF91CF9108950E94D5
:1019600007120E940A120E9426120E9492180E94D8
:10197000681780E090E00E94E40780E090E00C941B
:10198000FA0780910001909101010E9480130C944C
:10199000AF0C0E94F7110C94C10CE92FE295EF7087
:1019A000F0E03297EE30F105B0F4EE59FF4F0C94B1
:1019B0009B1F803F91F018F4883E68F40EC0843F6E
:1019C00051F40BC0883E48F0813F29F406C093FBD8
:1019D000882780F9089580E0089581E008950E94A5
:1019E000A8110E94CD0C0895CF93DF9300D000D0B2
:1019F0001F92CDB7DEB70F900F900F900F900F9002
:101A0000DF91CF910895CF93DF9300D000D000D025
:101A1000CDB7DEB726960FB6F894DEBF0FBECDBFAA
:101A2000DF91CF9108951F93CF93DF93C091A301CE
:101A300016E08091A401C81799F0D0E01C9FF00136
:101A40001D9FF00D1124EB55FE4F408151816281A5
:101A50007381848195810E94030D2196C770E9CF1F
:101A6000DF91CF911F9108954091D5015091D601FA
:101A70006091D7017091D8018091D9019091DA01DC
:101A80000C94030DCF93DF938091DA0182958F70D0
:101A900009F051C08091D701882309F44CC080918E
:101AA000A301C091A4014091D5015091D60160914C
:101AB000D8017091D901D6E08C17E9F190E0611559
:101AC0007105B1F15F3F11F44F3F91F1D89FF001E3
:101AD000D99FF00D1124DF01AB55BE4F11962C910B
:101AE0001197521325C02C91421322C012962C91AB
:101AF000129721111DC013962D913C911497261B0E
:101B0000370B283C3105A0F48091DA018F70806199
:101B10008093DA01E655FE4F80818F70806180836B
:101B200085ED91E00E94860CDF91CF910C94130D0E
:101B300001968770C1CFDF91CF910895AF92BF9288
:101B4000CF92DF92FF920F931F93CF93DF93CDB786
:101B5000DEB762970FB6F894DEBF0FBECDBF8C0123
:101B600085E0F801DE011D9601900D928A95E1F75E
:101B7000D8014C9111965C91119712966C91129725
:101B80001396AD90BC9014979091D5012091D601F9
:101B9000E091D801F091D901309709F435C12F3F78
:101BA00019F49F3F09F430C185EDC82E81E0D82E8D
:101BB000F090D701D501AE1BBF0BFF2009F4D2C0B6
:101BC0008091DA01382F307FA83CB10508F08FC032
:101BD000311144C0251312C0941310C061110EC0FE
:101BE0008F7080618093DA010E94340DC6010E94DB
:101BF000860C8091DA01F80185832EC0AB2819F19B
:101C00005F3F11F44F3FF9F0D62E61111CC0809157
:101C1000A3012091A40136E0821709F413C190E0DA
:101C2000389FF001399FF00D1124EB55FE4F718163
:101C3000571306C07081471303C07281711103C02E
:101C400001968770E9CFF62E662309F421C18091B1
:101C5000DA0181608093DA01F12C1AC1251306C0E4
:101C6000941304C0611102C0F8019BC04D875E87C8
:101C70008D859E856A8B0E94EF0C6A89882389F185
:101C8000662379F12091DA01822F82958F7090E09E
:101C9000029774F08091D5019091D60198878F8337
:101CA0001986BB86AA862C87CE0107960E94860CD1
:101CB00086E0F801A5EDB1E001900D928A95E1F77B
:101CC0000E94420D0E94340D0FC0251721F14D874F
:101CD0005E878D859E856A8B0E94EF0C6A898111D3
:101CE00029C0C8010E94860CFF24F394D1C0311191
:101CF000ECCF7A2DB98AA88A89890E94F40C85EDE7
:101D000091E00E94860C86E0D6011D928A95E9F743
:101D10000E94340DA1CF9413DACF6111D8CFF8010E
:101D20008583C8010E94860C86E0D6011D928A95A3
:101D3000E9F7AEC06623A9F22091DA01822F8295DD
:101D40008F7090E002970CF4B3CF8091D501909101
:101D5000D6019A8389831B82BD82AC822E83CE01F9
:101D60000196A4CFA83CB10508F042C0F62E662328
:101D700009F4B7CF25132BC0941329C02091DA01A1
:101D800020FD1CC0822F82958F70C1F0F801258341
:101D90008F3041F08F5F982F9295907F822F8F70B8
:101DA000892B8583C8010E94860C86E0F801A5ED89
:101DB000B1E001900D928A95E1F741C086E0F8010B
:101DC000A5EDB1E001900D928A95E1F761C04D87D4
:101DD0005E878D859E850E94EF0C811169CF809171
:101DE000DA0181608093DA01C8010E94860C50C03C
:101DF0007A2DB98AA88A89890E94F40C86E0D601D6
:101E00001D928A95E9F71BC0662309F46ACF4D87B6
:101E10005E878D859E850E94EF0CF82E882309F43D
:101E200060CF86E0F801A5EDB1E001900D928A95B2
:101E3000E1F785ED91E00E940E090E94420D0E949B
:101E4000340D26C04D875E878D859E850E94A81122
:101E5000292F22952F7030E0223031052CF49F700D
:101E600041F0811106C00CC0243031052CF49F7064
:101E700049F4805E883020F0C8010E94860CDF2C77
:101E8000FD2C06C0D80115969C91907F91F7F8CF54
:101E90008F2D62960FB6F894DEBF0FBECDBFDF91D7
:101EA000CF911F910F91FF90DF90CF90BF90AF9097
:101EB00008951F93CF93DF93CDB7DEB72C970FB65E
:101EC000F894DEBF0FBECDBF4F83588769877A87EE
:101ED0008B879C87CE0107960E949E0D882369F010
:101EE0008F8198852A853B85232BF1F19F3F09F04F
:101EF00063C08F3F09F060C037C086E0FE013796AF
:101F0000DE01119601900D928A95E1F76F81788537
:101F1000EA85FB85309741F17F3F11F46F3F21F156
:101F20002091A40130E0C901019687709927409162
:101F3000A30150E08417950709F447C069837A83A9
:101F4000FD83EC8396E0929FD001939FB00D112406
:101F5000AB55BE4FFE01319601900D929A95E1F777
:101F60008093A4010E94130D16E08091A30190912B
:101F7000A4018917C1F1189FC00111248B559E4FF0
:101F80000E949E0D882379F1E091A3011E9FF0012C
:101F90001124EB55FE4F4081518162817381848110
:101FA00095810E94030D8091A30190E001968770B6
:101FB00099278093A301D9CF4F81588569857A8568
:101FC0008B859C850E94030DCFCF0E94C90C109277
:101FD000A4011092A301E5EDF1E086E0DF011D927E
:101FE0008A95E9F7C1CF2C960FB6F894DEBF0FBEE5
:101FF000CDBFDF91CF911F91089508950C94FD0FEF
:102000000E94FE0F60930C0270930D0280930E02EB
:1020100090930F020C94AF0C08950C9400100F9342
:102020001F9300910C0210910D0220910E0230912D
:102030000F02602B712B822B932B1F910F910C940D
:1020400000100F931F9300910C0210910D0220912C
:102050000E0230910F0260237123822393231F917C
:102060000F910C9400100F931F9300910C0210918C
:102070000D0220910E0230910F02602771278227F6
:1020800093271F910F910C94001008950C94451004
:102090000E944610609308027093090280930A021E
:1020A00090930B020C94AF0C60E070E0CB010C94A9
:1020B00048100F931F9341E050E060E070E08A0108
:1020C0009B0104C0000F111F221F331F8A95D2F7F6
:1020D000C901B8011F910F910C9448100F931F93E1
:1020E00041E050E060E070E004C0440F551F661FFF
:1020F000771F8A95D2F78091080290910902A091EA
:102100000A02B0910B028A019B01082B192B2A2B82
:102110003B2BC901B8011F910F910C9448100F93EC
:102120001F9341E050E060E070E004C0440F551F91
:10213000661F771F8A95D2F74095509560957095E8
:102140008091080290910902A0910A02B0910B02BD
:102150008A019B01082319232A233B23C901B801C3
:102160001F910F910C9448100F931F9341E050E082
:1021700060E070E004C0440F551F661F771F8A950A
:10218000D2F78091080290910902A0910A02B091C1
:102190000B028A019B01082719272A273B27C9011F
:1021A000B8011F910F910C9448100F931F93009149
:1021B00008021091090220910A0230910B02602B53
:1021C000712B822B932B1F910F910C9448100F931E
:1021D0001F93009108021091090220910A02309188
:1021E0000B0260237123822393231F910F910C9480
:1021F00048100F931F93009108021091090220913B
:102200000A0230910B0260277127822793271F91C2
:102210000F910C94481008952EE0929F800D112488
:10222000A82FA695A695A695877051E001C0550FD9
:102230008A95EAF785E0A89FD001112420E030E0DC
:1022400070E0F901EA0FFB1FE552FE4F4081CB0120
:10225000022E02C0969587950A94E2F7817099271D
:10226000819584278523842780832F5F3F4F2530E6
:10227000310539F708952EE0929F800D1124682FC3
:10228000669566956695982F977085E0689FB00172
:10229000112440E050E080E0FA01E60FF71FE5521C
:1022A000FE4F208130E0092E02C0369527950A9412
:1022B000E2F721703327042E01C0220F0A94EAF7B7
:1022C000822B4F5F5F4F4530510531F70895BF9224
:1022D000CF92DF92EF92FF920F931F93CF93DF93F2
:1022E0008C01C0900C02D0900D02E0900E02F09094
:1022F0000F028091080290910902A0910A02B09108
:102300000B02C82AD92AEA2AFB2ACFE1D0E0D7015A
:10231000C6010C2E04C0B695A795979587950A948B
:10232000D2F780FF07C0BC2EB8018C2F0E94B502E7
:10233000019719F4219758F7B12C8B2DDF91CF918C
:102340001F910F91FF90EF90DF90CF90BF90089575
:10235000CF93DF93EC010E946711BE010E94B5028A
:10236000DF91CF9108951F93CF93DF93EB0190916D
:10237000A201992321F0CB010E94A81113C0882348
:1023800049F0CB010E946711182F682FCE010E94DF
:102390000C1104C0CB010E943B11182FBE01812FEC
:1023A0000E94B502DF91CF911F9108958091100294
:1023B000859585958595089580911002877008957B
:1023C00090911002977081E009F480E00895809167
:1023D0001C02089590911C02892B80931C02089581
:1023E000809590911C02892380931C02089510927D
:1023F0001C02089590911B02892B80931B02089563
:10240000809590911B02892380931B02089510925E
:102410001B02089510921A020895809111020895E6
:1024200008950C94101290911102981721F0809346
:1024300011020C941112089580911102882329F041
:102440001092110280E00C9411120895E0910001A5
:10245000F091010180911C028083E0910001F091D4
:102460000101908180911B02892B8083E091000102
:10247000F0910101908180911A02892B80838091D3
:102480001102882381F0E0910001F0910101908117
:10249000892B808380910001909101010E943B1360
:1024A00081110E941C1280910001909101010C94F5
:1024B000CB0708950C94591298E0899F900111243C
:1024C000262B209310020E946E1080911002859599
:1024D000859585950C945A121092100280E00C9408
:1024E0005A12209110028095822380931002982F17
:1024F000977079F430E0482F082E000C550B241704
:10250000350739F08595859585950E948F100C9437
:102510006C12089580E090E00E94BD1F21E08C3E87
:102520009E4F09F020E0822F089582E090E00C9405
:10253000B51F682F82E090E00C94C31F83E090E009
:102540000C94B51F682F83E090E00C94C31FCF93C9
:1025500084E090E00E94B51FC82F81E290E00E94C5
:10256000B51F2C2F30E0A901582BCA01CF91089537
:10257000CF93C92F682F84E090E00E94C31F6C2F77
:1025800081E290E0CF910C94C31FAB01BC018FE0BE
:1025900090E00C94D51FAB01BC0183E190E00C945A
:1025A000D51F60E070E0CB010C94CB1260E070E0CE
:1025B000CB010E94C5120C94D1126CEE7EEF80E02C
:1025C00090E00E94E11F60E082E090E00E94C31F63
:1025D00060E083E090E00E94C31F10920C02109212
:1025E0000D0210920E0210920F0260E084E090E063
:1025F0000E94C31F60E081E290E00E94C31F60E080
:1026000085E090E00E94C31F60E086E090E00E94B9
:10261000C31F6FEF87E090E00E94C31F40E050E0CF
:10262000BA0188E090E00E94D51F60E08DE090E064
:102630000E94C31F40E050E0BA0188E190E00E9490
:10264000D51F60E087E190E00E94C31F40E050E0AA
:10265000BA018CE190E00E94D51F60E080E290E03A
:102660000E94C31F0C94D6120C94DD12682F8EE0CA
:1026700090E00C94C31FFC01329697E080E09150EB
:1026800029F021912223D9F38F5FF9CF0895662392
:1026900049F0FC01329608962191261729F0E81797
:1026A000F907D1F780E0089581E008959C01FC01CD
:1026B00032969FEF80E04191461789F09F3F19F4D1
:1026C000411101C0982F8F5F8630A9F79F3F39F0E5
:1026D000F901E90FF11D97FDFA95628308950895B8
:1026E000FC01329608962081261301C01082319693
:1026F000E817F907C1F708950C9456130C9470135A
:10270000029626E0FC0111922A95E9F708950895B2
:102710000C9487130E94881380915602843049F1EB
:1027200010921E0220E488E190E00FB6F894A8957C
:10273000809360000FBE2093600080E00E944D02F5
:102740000E94881383B7817F846083BF83B78160D1
:1027500083BF7894889583B78E7F83BF0FB6F89434
:10276000A89580916000886180936000109260005D
:102770000FBE089508950895CF930E94BA130E9442
:10278000EB040E94BB13C0E08C2F0E949204892BA3
:1027900029F4CF5FC530C1F780E001C081E0CF915F
:1027A000089508950C94D1130E94C90C0E94BF078C
:1027B0000E944D020C94D2131F920F920FB60F92EB
:1027C00011248F939F93AF93BF9380911E02811129
:1027D00013C080914C0290914D02A0914E02B09195
:1027E0004F024196A11DB11D80934C0290934D0262
:1027F000A0934E02B0934F02BF91AF919F918F91E2
:102800000F900FBE0F901F90189582E084BD93E04B
:1028100095BD9AEF97BD80936E0008952FB7F894F9
:1028200080914C0290914D02A0914E02B0914F02C6
:102830002FBF08959C014FB7F89480914C0290915E
:102840004D02A0914E02B0914F024FBF821B930BDD
:10285000089578941F920F920FB60F9211248F93C0
:102860009F93AF93BF9380914C0290914D02A091A2
:102870004E02B0914F020196A11DB11D80934C02F2
:1028800090934D02A0934E02B0934F02BF91AF912F
:102890009F918F910F900FBE0F901F90189581E020
:1028A0008093E00080E28093D8001092C9008FE10D
:1028B0009EE40197F1F700C0000087E090EBDC0197
:1028C00080935F0290936002A0936102B0936202D2
:1028D0009CE088E10FB6F894A895809360000FBE45
:1028E00090936000FFCFAF92BF92CF92DF92EF92B2
:1028F000FF920F931F93CF93C0E0CC24C394D12CAD
:10290000E82EF12C8C2F0E9492045C0100E010E074
:102910009601002E02C0220F331F0A94E2F72A21EB
:102920003B21232B31F40F5F1F4F0E30110581F730
:102930000AC0602F7C2F80E00E94A302E816F906EF
:1029400091F781E004C0CF5FC530E1F680E0CF9120
:102950001F910F91FF90EF90DF90CF90BF90AF90BD
:102960000895CF93C82F8CE20E947314882321F01E
:102970008C2FCF910C94731480E0CF910895CF9356
:102980000E948A12811102C00E943413C5E6C15010
:1029900049F00E94EB048FE39CE90197F1F700C036
:1029A0000000F5CF89E20E94B114811120C18AE2B2
:1029B0000E94B11481110E94341385E00E94B11469
:1029C00081110E944F140E94951280931D0287E08E
:1029D0000E94B1148823A9F18BE10E94B1148823CD
:1029E00051F080911D0281FB222720F991E092276E
:1029F00090FB81F90EC08EE00E94B114882361F033
:102A000080911D0282FB222720F991E0922790FB02
:102A100082F980931D0215C080E10E94B11490914B
:102A20001D02882341F093FB222720F981E08227B1
:102A300080FB93F904C0892F809580FB90F99093D7
:102A40001D0280911D020E9499120E94A71290936C
:102A500051028093500280EE0E94B114882341F00D
:102A600080915002982F909590FB80F980935002AE
:102A700089E30E94B114882359F08091500281FBB0
:102A8000222720F991E0922790FB81F98093500250
:102A900082EE0E94B114882359F08091500282FB8B
:102AA000222720F991E0922790FB82F9809350022F
:102AB00086EE0E94B114882359F08091500283FB66
:102AC000222720F991E0922790FB83F9809350020E
:102AD00083EE0E94B114882359F08091500284FB48
:102AE000222720F991E0922790FB84F980935002ED
:102AF00085E30E94B114882359F08091500285FB30
:102B0000222720F991E0922790FB85F980935002CB
:102B100081E30E94B114882359F08091500286FB12
:102B2000222720F991E0922790FB86F980935002AA
:102B300081E10E94B114882359F08091500287FBF3
:102B4000222720F991E0922790FB87F98093500289
:102B500080915002909151020E94B81287E20E9427
:102B6000B114C82F8EE10E94B1148111C2608FE1AF
:102B70000E94B1148111C46080E20E94B1148111DD
:102B8000C86081E20E94B1148111C06182E20E949A
:102B9000B1148111C06283E20E94B1148111C0643A
:102BA00084E20E94B114882311F0C06802C0CC23D3
:102BB00029F08C2F0E94A2126C2F03C00E949E123B
:102BC000682F70E080E090E00E940D108FE00E947E
:102BD000B114882319F081E00E94361385E10E9428
:102BE000B114882321F080E0CF910C943613CF915B
:102BF00008958091260280FF0BC06091070185E057
:102C0000689FB001112475956795759567952BC0E0
:102C100081FF09C06091070185E0689FB001112420
:102C20007595679520C082FF07C06091070185E018
:102C3000689FB001112417C0909125029923D1F00B
:102C400060910601961788F72091070185E0289F7B
:102C500090011124929FA001939F500D112470E0C8
:102C6000CA010E94871F6038710540F46115710523
:102C700039F002C065E070E0862F08958FE708956F
:102C800081E008958091260280FF08C060910301D1
:102C900070E0759567957595679521C081FF06C0B1
:102CA0006091030170E07595679519C082FF04C0BB
:102CB0006091030170E010C0909125029923C1F04A
:102CC000609102019617A0F780910301899FC001CE
:102CD000112470E00E94871F6038710528F4611587
:102CE000710521F0862F08958FE7089581E00895FA
:102CF00061E070E0F4CF803F21F40E94F9158195E6
:102D000004C0813F29F40E94F91580932A02089596
:102D1000823F21F40E94F915819504C0833F29F474
:102D20000E94F915809329020895893F19F40E94A1
:102D3000421605C08A3F31F40E9442168195809365
:102D40002B0208958B3F21F40E944216819504C006
:102D50008C3F29F40E94421680932C020895843FF0
:102D600021F480912802816017C0853F21F4809171
:102D70002802826011C0863F21F48091280284607D
:102D80000BC0873F21F480912802886005C0883FEE
:102D900031F48091280280618093280208958D3F4C
:102DA00021F48091260281600BC08E3F21F4809136
:102DB0002602826005C08F3F29F48091260284603C
:102DC000809326020895803F39F480912A0287FF7C
:102DD0006CC010922A0269C0813F29F480912A02B6
:102DE0001816BCF362C090912902823F29F497FF24
:102DF0005CC01092290259C0833F19F41916CCF314
:102E000054C0893F41F480912B0218160CF04DC03C
:102E100010922B024AC08A3F29F480912B0287FF2F
:102E200044C0F6CF8B3F39F480912C0287FF3DC020
:102E300010922C023AC08C3F29F480912C02181673
:102E4000BCF333C0843F21F4809128028E7F17C0E9
:102E5000853F21F4809128028D7F11C0863F21F4A7
:102E6000809128028B7F0BC0873F21F4809128023C
:102E7000877F05C0883F31F4809128028F7E809340
:102E8000280213C08D3F21F4809126028E7F0BC053
:102E90008E3F21F4809126028D7F05C08F3F29F45B
:102EA000809126028B7F80932602809129028111D6
:102EB0000EC080912A0281110AC080912B028111DB
:102EC00006C080912C02811102C010922502089543
:102ED00087E292E00E94D6070E940E14909324028B
:102EE000809323020895CF93DF9300D000D000D0C9
:102EF000CDB7DEB786E0E7E2F2E0DE0111960190A1
:102F00000D928A95E1F780912902811105C0809187
:102F10002A02882309F47AC080912102909122022A
:102F20000E941A14AC0190912502992339F0209146
:102F3000080130E02417350758F068C020910901D6
:102F40008AE0289F900111242417350718F05EC0ED
:102F50009F3F19F09F5F9093250210922B021092D1
:102F60002C0280912902181624F40E94F9158093EE
:102F700029028091290287FF05C00E94F9158195D9
:102F80008093290280912A02181624F40E94F915D0
:102F900080932A0280912A0287FF05C00E94F915BA
:102FA000819580932A02309129023323E1F0209108
:102FB0002A022223C1F045EB3403C0011124892FDA
:102FC000990F990B009709F481E08093290235EB62
:102FD0002303C0011124892F990F990B009709F43D
:102FE00081E080932A020E946817809123029091C9
:102FF0002402909322028093210286E0FE01319602
:10300000A7E2B2E001900D928A95E1F780912B0240
:10301000811105C080912C02882309F47AC0809127
:103020001F02909120020E941A14AC019091250277
:10303000992339F02091040130E02417350758F026
:1030400068C0209105018AE0289F9001112424176F
:10305000350718F05EC09F3F19F09F5F90932502DF
:103060001092290210922A0280912B02181624F441
:103070000E94421680932B0280912B0287FF05C08D
:103080000E944216819580932B0280912C02181683
:1030900024F40E94421680932C0280912C0287FF18
:1030A00005C00E944216819580932C0230912B021C
:1030B0003323E1F020912C022223C1F045EB3403AD
:1030C000C0011124892F990F990B009709F481E011
:1030D00080932B0235EB2303C0011124892F990F14
:1030E000990B009709F481E080932C020E946817E5
:1030F00080912302909124029093200280931F02DA
:1031000086E0FE013196A7E2B2E001900D928A9529
:10311000E1F726960FB6F894DEBF0FBECDBFDF9164
:10312000CF910895E7E2F2E086E0DF011D928A95F3
:10313000E9F7109225021092260208958091350237
:103140000895CF93DF9300D01F92CDB7DEB7909153
:103150005602943019F589837B836A8382E08093D9
:10316000E9008FEF9091E800815095FD06C095ED44
:103170009A95F1F700008111F5CF8091E80085FF65
:103180000DC040E050E063E070E0CE0101960E9487
:10319000EB1A8091E8008E778093E8000F900F90F3
:1031A0000F90DF91CF910895CF93DF93EC010E94B0
:1031B000CE1A823011F0843031F4BE0184E0DF9108
:1031C000CF910C94A118DF91CF910895BC0183E0B9
:1031D0000C94A118CF93DF93EC010E94CE1A823099
:1031E00011F08430F9F482E08093E9009FEF809140
:1031F000E800915085FD06C085ED8A95F1F7000045
:103200009111F5CF8091E80085FF0CC040E050E0BF
:1032100066E070E0CE010E94EB1A8091E8008E77A4
:103220008093E800DF91CF910895CF93DF93EC0175
:103230000E94CE1A823011F0843039F581E08093FB
:10324000E9008FEF9091E800815095FD06C095ED63
:103250009A95F1F700008111F5CF8091E80085FF84
:1032600014C040E050E068E070E0CE010E94EB1A2C
:103270008091E8008E778093E80088E0FE01ADE25F
:10328000B2E001900D928A95E1F7DF91CF91089518
:1032900080915502811109C00E94801C0E94DD1C92
:1032A0008091E20084608093E200089510925502BC
:1032B0000895089508950C94D41342E061EC81E0E0
:1032C0000E94FA1B42E261EC82E00C94FA1B8091AE
:1032D0005802833009F460C030F4813071F08230DC
:1032E00009F499C008958A3009F485C08B3009F437
:1032F0006BC0893009F0A7C020C080915702813A85
:1033000009F0A1C08091E800877F8093E800809158
:103310005B0290915C02892B21F468E08DE292E0DF
:1033200003C060E080E090E070E00E94361B809176
:10333000E8008B778093E8000895809157028132EE
:1033400009F081C080915B0290915C02029708F0C5
:103350007AC08091E800877F8093E8008091E80040
:1033600082FD05C0809156028111F8CF6CC020917A
:10337000F3008091F20090E0922B029729F4809163
:10338000F1008B7F813021F48091F1008093350230
:103390008091E8008B7753C080915702813A09F001
:1033A00052C080915B0290915C02892B09F04BC066
:1033B0008091E800877F8093E8008091E80080FF9B
:1033C000FCCF8091140136C0809157028132D9F52B
:1033D00080915B0290915C02892BA9F58091E800B5
:1033E000877F8093E8000E942F1C80915902809370
:1033F00014010C94C90C80915702813221F58091FF
:10340000E800877F8093E8000E942F1C80915A0279
:1034100080933602089580915702813AA1F48091F9
:10342000E800877F8093E8008091E80080FFFCCF70
:10343000809136028093F1008091E8008E7780932E
:10344000E8000C942F1C089584B7877F84BF0FB6C3
:10345000F894A89580916000886180936000109234
:1034600060000FBE90E080E80FB6F8948093610092
:10347000909361000FBE0E941E080E94801C0E9453
:10348000DD1C8091E20084608093E20078940E94C9
:103490006C1F0E9428088AE091E00E94BA07809180
:1034A0005602853069F40E948A1380915402882361
:1034B000B1F30E94BC13882391F30E94D51AEFCF79
:1034C0000E943008ECCF0C94651A292F3327233043
:1034D0003105C9F064F42130310581F02230310525
:1034E00009F04CC08BE390E02AE332E04BC021327C
:1034F000310521F12232310589F140C082E190E0AD
:1035000025E732E03FC099278130910571F02CF416
:10351000892BA1F5E6E3F2E00DC08230910541F080
:10352000039761F5ECE0F2E005C0EEE1F2E002C0E5
:10353000E2E1F2E0849190E09F0124C06115710501
:1035400041F061307105D1F489E090E025E632E088
:1035500019C089E090E02CE432E014C061157105D7
:1035600041F06130710551F481E890E027E832E0E4
:1035700009C080E490E028E033E004C080E090E0FF
:1035800020E030E0FA0131832083089580915602D3
:10359000843011F081E0089582E00895809137022F
:1035A000811102C00C94C61A089580E189BD82E1A0
:1035B00089BD09B400FEFDCF8091D8008F7D809336
:1035C000D8008091E00082608093E0008091E0006C
:1035D00081FDFCCF0895CF92DF92EF92FF920F937F
:1035E0001F93CF93DF93EC018B016A010E944E1C65
:1035F000811133C0C114D10439F0F6018081918169
:10360000081B190BC80FD91FE12CF12C011511054E
:1036100019F18091E80085FD16C08091E8008E7751
:103620008093E800C114D10449F0F60180819181B2
:10363000E80EF91EF182E08285E00FC00E944E1C68
:10364000882321F30AC089918093F1000150110968
:10365000FFEFEF1AFF0ADACF80E0DF91CF911F91E1
:103660000F91FF90EF90DF90CF90089520915D0231
:1036700030915E022617370748F06115710539F45D
:103680002091E8002E772093E80001C0B90140E0C6
:1036900061157105A9F120915602222309F443C056
:1036A000253009F442C02091E80023FD40C020915C
:1036B000E80022FD32C02091E80020FFE9CF4091D0
:1036C000F3002091F20030E0342BFC01CF016115B2
:1036D000710559F02830310540F481918093F10053
:1036E000615071092F5F3F4FF1CF41E02830310524
:1036F00009F040E02091E8002E772093E800C8CF41
:103700004111C9CF0AC080915602882361F08530EB
:1037100061F08091E80083FD0AC08091E80082FF9B
:10372000F2CF80E0089582E0089583E0089581E07B
:10373000089520915D0230915E022617370748F008
:103740006115710539F42091E8002E772093E80087
:1037500001C0B901FC0120E06115710591F1809172
:103760005602882309F440C0853009F43FC0809197
:10377000E80083FD3DC08091E80082FD2FC080916C
:10378000E80080FFE9CF2091F3008091F20090E003
:10379000922B6115710559F08830910540F4249100
:1037A0002093F1003196615071090196F2CF21E02A
:1037B000089709F020E08091E8008E778093E80078
:1037C000CBCF2111CCCF0AC080915602882361F063
:1037D000853061F08091E80083FD0AC08091E800A7
:1037E00082FFF2CF80E0089582E0089583E008959B
:1037F00081E00895982F973058F59093E900981735
:1038000039F07091EC002091ED005091F00003C070
:10381000242F762F50E021FF19C03091EB003E7F1E
:103820003093EB003091ED003D7F3093ED0030910F
:10383000EB0031603093EB007093EC002093ED00CF
:103840005093F0002091EE0027FF07C09F5FD3CF79
:103850008F708093E90081E0089580E00895809161
:10386000570287FF11C08091E80082FD05C080915A
:1038700056028111F8CF11C08091E8008B770BC000
:1038800080915602882349F08091E80080FFF8CFAC
:103890008091E8008E778093E80008952091E400FD
:1038A0003091E50095E64091EC00842F817040FF57
:1038B00022C08091E80080FD1CC0809156028823C0
:1038C00091F0853091F08091EB0085FD10C0409122
:1038D000E4005091E5004217530729F39A019150F3
:1038E00011F784E0089582E0089583E0089581E06F
:1038F000089580E008954091E80042FFDECF0895EA
:103900000E94EE1C0E94F61CE0EEF0E080818160D7
:103910008083E8EDF0E080818F77808319BCA7ED8C
:10392000B0E08C918E7F8C9380818F7E808310920B
:10393000550208950F931F93CF93DF930E94EE1CBF
:103940000E94F61CC8EDD0E088818F77888388813B
:103950008068888388818F7D888319BC1092560285
:1039600010925202109254021092530200EE10E094
:10397000F80180818B7F808388818160888342E029
:1039800060E080E00E94FA1BE1EEF0E080818E7F33
:103990008083E2EEF0E080818160808380818860B6
:1039A0008083F80180818E7F808388818061888315
:1039B000DF91CF911F910F910895E8EDF0E08081A4
:1039C0008F7E8083E7EDF0E080818160808384E0FA
:1039D00082BF81E0809355020C949A1CE8EDF0E0E0
:1039E00080818E7F80831092E20008951092DA0029
:1039F0001092E10008951F920F920FB60F921124BA
:103A00002F933F934F935F936F937F938F939F93E6
:103A1000AF93BF93EF93FF938091E10082FF0BC0C0
:103A20008091E20082FF07C08091E1008B7F80934C
:103A3000E1000E946B1F8091DA0080FF1FC080911F
:103A4000D80080FF1BC08091DA008E7F8093DA005F
:103A50008091D90080FF0DC080E189BD82E189BDE0
:103A600009B400FEFDCF81E0809356020E94481900
:103A700005C019BC109256020E9456198091E100AF
:103A800080FF19C08091E20080FF15C08091E200A4
:103A90008E7F8093E2008091E20080618093E2005B
:103AA0008091D80080628093D80019BC85E0809313
:103AB00056020E945A198091E10084FF30C0809123
:103AC000E20084FF2CC080E189BD82E189BD09B498
:103AD00000FEFDCF8091D8008F7D8093D80080912B
:103AE000E1008F7E8093E1008091E2008F7E8093E1
:103AF000E2008091E20081608093E20080915202B6
:103B0000882311F084E007C08091E30087FD02C0A4
:103B100081E001C083E0809356020E945B1980918E
:103B2000E10083FF29C08091E20083FF25C08091DE
:103B3000E100877F8093E10082E08093560210923B
:103B400052028091E1008E7F8093E1008091E2003B
:103B50008E7F8093E2008091E20080618093E2009A
:103B600042E060E080E00E94FA1B8091F0008860F3
:103B70008093F0000E945919FF91EF91BF91AF918E
:103B80009F918F917F916F915F914F913F912F9175
:103B90000F900FBE0F901F9018951F920F920FB6A7
:103BA0000F9211242F933F934F935F936F937F93C3
:103BB0008F939F93AF93BF93CF93DF93EF93FF9335
:103BC000C091E900CF708091EC00D82FD17080FDBA
:103BD000D0E81092E9008091F000877F8093F00098
:103BE00078940E94111E1092E9008091F000886084
:103BF0008093F000CD2BCF70C093E900FF91EF913F
:103C0000DF91CF91BF91AF919F918F917F916F91F4
:103C10005F914F913F912F910F900FBE0F901F908A
:103C200018951F93CF93DF93CDB7DEB7AA970FB642
:103C3000F894DEBF0FBECDBFE7E5F2E088E08E0F5F
:103C40009091F10091938E13FBCF0E9467198091A0
:103C5000E80083FF28C18091570290915802492FB4
:103C600050E04A30510508F01EC1FA01E059FF4FFB
:103C70000C949B1F803821F0823809F014C108C0D1
:103C80008091530290915402992389F082600FC071
:103C900080915B028F70873008F005C18093E90046
:103CA0008091EB0085FB882780F91092E9009091C4
:103CB000E800977F9093E8008093F1001092F10064
:103CC000D0C0282F2D7F09F0EEC0882319F0823054
:103CD00061F0E9C080915902813009F0E4C093306D
:103CE00009F080E0809354022EC080915902811126
:103CF0002AC080915B028F702FEF280F263008F0CA
:103D0000D2C08093E9002091EB0020FF1CC09330CB
:103D100021F48091EB00806214C09091EB009061DF
:103D20009093EB0021E030E0A90102C0440F551F41
:103D30008A95E2F74093EA001092EA008091EB0046
:103D400088608093EB001092E9008091E800877F03
:103D50008093E8000E942F1CA6C08111A4C010917E
:103D600059021F778091E3008078812B8093E300D4
:103D70008091E800877F8093E8000E942F1C80914B
:103D8000E80080FFFCCF8091E30080688093E3002F
:103D9000111102C082E001C083E08093560283C00B
:103DA0008058823008F07FC08091590290915A0269
:103DB0008C3D53E0950779F583E08A838AE2898315
:103DC0004FB7F894DE01139620E03EE051E2E32F76
:103DD000F0E050935700E49120FF03C0E295EF70AC
:103DE0003F5FEF708E2F90E0EA3010F0C79601C071
:103DF000C0968D939D932F5F243149F74FBF8091DB
:103E0000E800877F8093E8006AE270E0CE010196C7
:103E10000E94361B15C060915B0270915C02AE017E
:103E20004F5F5F4F0E94631ABC01892BE1F19091B3
:103E3000E800977F9093E80089819A810E94991BFE
:103E40008091E8008B778093E8002DC0803859F589
:103E50008091E800877F8093E800809152028093F0
:103E6000F1008091E8008E7773CF81111CC0909192
:103E700059029230C0F48091E800877F8093E80077
:103E8000909352020E942F1C80915202811106C011
:103E90008091E30087FD02C081E001C084E080934F
:103EA00056020E945D198091E80083FF0AC080914C
:103EB000E800877F8093E8008091EB008062809328
:103EC000EB00AA960FB6F894DEBF0FBECDBFDF9110
:103ED000CF911F9108950895CF9380915602882322
:103EE000A1F0C091E900CF709091EC00892F817012
:103EF00090FD80E8C82B1092E9008091E80083FDD6
:103F00000E94111ECF70C093E900CF91089597FBD6
:103F1000072E16F4009407D077FD09D00E94A11F48
:103F200007FC05D03EF4909581959F4F08957095BC
:103F300061957F4F0895EE0FFF1F0590F491E02DDE
:103F40000994AA1BBB1B51E107C0AA1FBB1FA617E0
:103F5000B70710F0A61BB70B881F991F5A95A9F732
:103F600080959095BC01CD010895F999FECF92BD41
:103F700081BDF89A992780B50895A8E1B0E042E0A4
:103F800050E00C94E91F262FF999FECF92BD81BD18
:103F9000F89A019700B4021639F01FBA20BD0FB687
:103FA000F894FA9AF99A0FBE08950396272F0E9463
:103FB000C41F0E94C31F252F0E94C41F242F0C94CE
:103FC000C41F0196272F0E94C41F0C94C31FDC013D
:103FD000CB01FC01F999FECF06C0F2BDE1BDF89A14
:103FE000319600B40D9241505040B8F70895F894BE
:023FF000FFCF01
:103FF20012022808641E140A321E9E181519EA18A5
:10400200E618D41801E200E900EA00B500B600B7EC
:1040120000CD008301CC008A019201940121022388
:104022000224022502260227022A02B300B4006FEC
:10403200007000818283F7F4F1F0676636353497B9
:1040420096949593313292F6F5E200E900EA00B5D2
:1040520000B600B700CD008301CC008A0192019422
:10406200012102230224022502260227022A02B388
:0A40720000B4006F0070008182832B
:00000001FF
