:100000000C94B6020C94FD020C94FD020C94FD02BB
:100010000C94FD020C94FD020C94FD020C94FD0264
:100020000C94FD020C94FD020C94C7210C949922AF
:100030000C940F1C0C94FD020C94FD020C94FD0218
:100040000C94FD020C94FD020C94FD020C94FD0234
:100050000C94FD020C94681C0C94FD020C94FD029F
:100060000C94FD020C94FD020C94FD020C94FD0214
:100070000C94FD020C94FD020C94FD020C94FD0204
:100080000C94FD020C94FD020C94FD020C94FD02F4
:100090000C94FD020C94FD020C94FD020C94FD02E4
:1000A0000C94FD020C94FD020C94FD02420B450BD6
:1000B000650B760B7E0B890BCF0BCF0BCF0BCF0BCA
:1000C000CF0B8C0B8F0B940BA10BAE0BB10BB50BA5
:1000D000C20B84128412B612B61203132113351404
:1000E00035142C13C513D613D613D514D514E71411
:1000F000E714DE14E714E714E714D514D514E31459
:10010000E714E714E31406232D2325242D232524A7
:1001100079239C232524F323022435001E001F008D
:1001200020002100220023002400250026002700B3
:100130002D002E0089002B0014001A000800150065
:1001400017001C0018000C00120013002F003000D4
:100150002A00390004001600070009000A000B00FD
:100160000D000E000F003300340031002800E100C4
:100170001D001B00060019000500110010003600CC
:10018000370038008700E5000000E000E300E200EF
:100190008B004C412C0028412A418A008841E6000E
:1001A0006500E400000029003A003B003C003D00EF
:1001B0003E003F0040004100420043004400450033
:1001C00089002B004B0052004E004A0017001C0013
:1001D00018000C00120013002F0030004C003900F2
:1001E000500051004F004D00490050005100520096
:1001F0004F003300340031004600E1001D001B00B9
:1002000006001900005C11001000360037003800AD
:100210005200E5000000E000E300E2008B00010076
:100220000100010001008A000100500051004F0050
:1002300000000100010001000100010001000100B7
:1002400001000100010001000100010001000100A6
:100250000100010001000100010001000100010096
:100260000100010001000100010001000100010086
:100270000100010001000100010001000100010076
:100280000100010001000100010001000100010066
:100290000100010001000100010001000100010056
:1002A0000000010001000100010001000100010047
:1002B0000100010001000100010001000000010037
:1002C0000100010001000100010001000100010026
:1002D0000100010001000100010001000100010016
:1002E0000100010001000100010001000100010006
:1002F00001000100010001000100010001000100F6
:1003000001000100010001000100010001000100E5
:1003100001000100010001000100010001000100D5
:1003200001000100010001000100010000000100C6
:1003300001000100010001000100010001000100B5
:1003400001000100010001000000000000000000A9
:1003500000002A2B28000000000000000000000020
:10036000000000000029000000002C1E3420212283
:1003700024342627252E362D3738271E1F202122EC
:10038000232425263333362E37381F040506070865
:10039000090A0B0C0D0E0F10111213141516171855
:1003A000191A1B1C1D2F3130232D35040506070893
:1003B000090A0B0C0D0E0F10111213141516171835
:1003C000191A1B1C1D2F3130354C00000000000095
:1003D000000000000000000000000000000000001D
:1003E00000000000000000000000000000007E0F80
:1003F00000D4FFFFFFC7000000780A037600310039
:100400007000310000001603740061006B00610091
:1004100073006800690073006B006900000004034A
:10042000090409025B00030100A0FA0904000001AD
:10043000030101000921110100012240000705818B
:100440000308000A09040100020300000009211149
:100450000100012222000705820320000107050395
:10046000032000010904020001030000000921111A
:10047000010001227B000705840320000A120110FD
:100480000100000008ADDEEFBE0100010200010620
:1004900060FF0961A1010962150026FF0095207522
:1004A0000881020963150026FF0095207508910256
:1004B000C005010902A10185020901A10005091970
:1004C000012908150025019508750181020501091A
:1004D0003009311581257F95027508810609381587
:1004E00081257F950175088106050C0A3802158162
:1004F000257F950175088106C0C005010980A1010D
:10050000850319012AB700150126B700950175105A
:100510008100C0050C0901A101850419012AA0026E
:10052000150126A002950175108100C0050109067C
:10053000A101050719E029E71500250195087501B6
:1005400081029501750881010507190029FF150031
:1005500026FF0095067508810005081901290595F3
:100560000575019102950175039101C011241FBE0B
:10057000CFEFDAE0DEBFCDBF04B603FE27C0809127
:10058000770290917802A0917902B0917A02873037
:10059000904BA740B04BD1F41092770210927802A2
:1005A0001092790210927A0214BE84B7877F84BFBA
:1005B0000FB6F894A89580916000886180936000E0
:1005C000109260000FBEE0E0F8E3099511E0A0E0B2
:1005D000B1E0E4EAF9E402C005900D92AA39B1074E
:1005E000D9F722E0AAE9B1E001C01D92A737B2070E
:1005F000E1F70E94861E0C94D0240C94000081E048
:10060000089581E008950C94FF0208950C94050369
:100610001F93CF93DF9300D000D01F92CDB7DEB7EA
:1006200049835A836B833091C90189819A81311141
:1006300014C0662359F0222349F00E949119182F03
:10064000682F89819A810E943A1903C00E94651916
:10065000182F69817A81812F04C00E9491196981C4
:100660007A810F900F900F900F900F90DF91CF91A4
:100670001F910C94A10CFC01262F408151816281B5
:10068000738184810C940803CF93DF93EC0160E0C5
:100690000E943B03BE01DF91CF910C9406038F9221
:1006A0009F92AF92BF92CF92DF92EF92FF920F9301
:1006B0001F936B017C0181E090E0A0E0B0E04C0171
:1006C0005D0104C0880C991CAA1CBB1C4A95D2F77A
:1006D000AC01BD0104C0440F551F661F771F2A954A
:1006E000D2F7482959296A297B2904C0880F991F04
:1006F000AA1FBB1F0A95D2F78A019B010C211D215D
:100700002E213F21401751076207730739F4BC01BE
:10071000CD016C297D298E299F290AC0809590954D
:10072000A095B095BC01CD016C217D218E219F212A
:100730001F910F91FF90EF90DF90CF90BF90AF90FF
:100740009F908F9008950F93382F262F60912F023E
:10075000709130028091310290913202042F432F28
:100760000E944F030F910C9476180E94B91C0E94AE
:10077000BE1A811102C00E94651B0C94E8060C94FD
:10078000E40608950E94C3140E94C1032FEF84E37E
:100790009CE0215080409040E1F700C000000C94A4
:1007A0008E1C0F931F93CF93DF93EC0161E00E94A7
:1007B0003B038C01BE010E94F10A882379F1BE013E
:1007C000C8010E940303882349F1BE01C8010E94A9
:1007D000D60D882319F1BE01C8010E94280E882376
:1007E000E9F0BE01C8010E94530F8823B9F08A8145
:1007F000882369F001158CE5180731F00F3D1C4581
:1008000031F40E94651B0AC00E94C20307C0CE01DA
:10081000DF91CF911F910F910C94010380E0DF9144
:10082000CF911F910F910895DF92EF92FF920F9356
:100830001F93CF93DF93E82FF0E0E65BFC4FD4905B
:10084000282F26952695269530E0F901E651FC4F94
:100850000491877010E0082E02C0159507950A9440
:10086000E2F701701127F901E652FC4FE490F12CF8
:10087000082E02C0F594E7940A94E2F791E0E92289
:10088000FF24F901E653FC4FC491D0E002C0D59596
:10089000C7958A95E2F7C170DD270115110519F09A
:1008A00081EE0E940D11E114F10419F086EE0E9410
:1008B0000D118D2D0E943612EF2819F086EE0E9440
:1008C000B711012B19F081EE0E94B711CD2B51F019
:1008D0008CE2DF91CF911F910F91FF90EF90DF900D
:1008E0000C943612DF91CF911F910F91FF90EF90F2
:1008F000DF900895EF92FF920F931F93CF93DF93B2
:10090000EC01162F0AE08881882309F455C0813054
:1009100009F043C08981813041F47E0182E0E80E14
:10092000F11C8A810E94361209C0823049F47E018E
:10093000E2E0EE0EF11C8A810E940D11E7012FC04A
:10094000833041F47E01F2E0EF0EF11C8A810E94B7
:10095000B711F4CF843011F0219621C02A8122965C
:1009600080E090E030E0205331092A30310558F41E
:10097000089FA001099F500D1124C901840F951FE4
:1009800021962881EFCF009751F0EFE9FFE03197F2
:10099000F1F700C000000197F6CF0E9414042196E1
:1009A000812F882309F4AFCFEFE9FFE03197F1F70A
:1009B00000C000008150F5CFDF91CF911F910F91C2
:1009C000FF90EF90089560E00C947A0408950C94E1
:1009D000E60481E008950C94E904CF93C82F0E94A7
:1009E000E7048C2F0E94EB04CF910895CF93DF93FF
:1009F0000E94A10C0E94F805EC01811521E59207E7
:100A000008F043C0811540E5940708F08AC0883E8D
:100A1000910520F5803E910508F0E6C0883A9105E1
:100A200070F4853A910508F074C08130910509F49D
:100A3000DBC008F4D7C0049708F0D6C0D3C08F3B02
:100A4000910508F0CFC0C85AD0E0CC0FDD1FCB5EB7
:100A5000DE4F0990D881C02DD464C6C0C11580E294
:100A6000D80758F4C11521E0D20708F0BDC0CD3E2B
:100A7000D10508F4B7C0D065B7C0C11540E4D407AC
:100A800008F4B0C0DF70D06AAFC0C11585E5D807E3
:100A9000A0F4C11524E5D20708F08AC0C11543E5CA
:100AA000D40708F06FC0C11582E5D80708F054C01C
:100AB000DC2FCC27C16FD06A97C0C11529E5D207BA
:100AC000A0F4C11548E5D40708F077C0C11586E544
:100AD000D80708F087C08C2F0E948C068F71C82F12
:100AE000D0E0DC2FCC27D0627FC0C1152AE5D20729
:100AF00008F468C0CE0190568115904208F072C08B
:100B00008D2F8F710E948C06DD27D0628F71D82BBC
:100B10006BC0C55AD0E0CD5BDE4FC881D0E0D06459
:100B200063C074E0969587957A95E1F783709C2F62
:100B3000937021E030E002C0220F331F9A95E2F754
:100B40003C68382BCF70C695C69580E2C89FE001FF
:100B50001124C22BD32B48C0CE018370992721E0EA
:100B600030E002C0220F331F8A95E2F78C2F869562
:100B7000869540E2849FC0011124E901C82BD92B3E
:100B8000DC6832C0CE018370992721E030E002C0DA
:100B9000220F331F8A95E2F78C2F8695869540E2C7
:100BA000849FC0011124E901C82BD92BDA681CC02D
:100BB000DC2FCC27C46FD06A17C0DC2FCC27C06FC6
:100BC000D06A12C08C2F8F700E948C0694E0D6954C
:100BD000C7959A95E1F7CF70D0E0DC2FCC27D0698C
:100BE000C82B02C0C0E0D0E0CE01DF91CF910895C4
:100BF0008238910569F1B0F48133910509F46DC033
:100C000048F48932910509F463C08A32910509F4E8
:100C100069C008958533910509F455C0893391055C
:100C2000B9F00895833E910569F138F4803E91054D
:100C3000B1F0823E910509F10895863E9105A9F132
:100C4000873E9105B9F1843E910509F064C023C047
:100C50002091680220FD4FC021FD4DC00895809174
:100C6000680280FD44C08091690280FF44C0809189
:100C7000680284FD42C083EE4DC08091680282FF0D
:100C800038C0F5CF8091680282FD33C0809169023F
:100C900080FD31C0ECCF8091690281FF32C080912C
:100CA000680284FD2AC087EE35C08091680283FF08
:100CB00026C0F5CF8091680283FD21C08091690232
:100CC00081FD1FC0ECCF8091680285FD1CC01DC056
:100CD0008091680285FD19C016C08091680286FD6A
:100CE00016C017C08091680286FD13C010C089E34A
:100CF00011C082EE0FC080EE0DC080E00BC086EE0A
:100D000009C084EE07C089E205C085E303C08AE21A
:100D100001C081E390E008959091680292FF0DC0B8
:100D2000282F2871283019F4877F846006C0282F67
:100D30002471243011F48B7F886093FF0DC0282F1D
:100D40002871283119F4877E846106C0282F247108
:100D5000243111F48B7E88612091690220FF0DC03F
:100D6000382F3871383019F4877F816006C0382FEA
:100D70003171313011F48E7F886021FF0DC0282F32
:100D80002871283119F4877E816106C0282F2171CE
:100D9000213111F48E7E886194FD877E0895E82FBD
:100DA000F0E0EE0FFF1FE65AFD4F8081918108951C
:100DB000089580EA8A95F1F7089500C008950C948B
:100DC000D90608950C94E1060C94E2060C94E10611
:100DD0000C94E606F894E82FE295EF70F0E031A16C
:100DE000282F2F7081E090E001C0880F2A95EAF744
:100DF000982F9095932391A392A1892B82A3789405
:100E000008950F931F93CF93DF9381E30E94EA0627
:100E100082E30E94EA0682E90E94EA0686EF0E94C7
:100E2000EA0685EF0E94EA06C6E4D1E004E511E097
:100E300089910E94EA060C171D07D1F7E0E5F2E060
:100E4000AAE5B2E0119211921D921D9282E0EA355C
:100E5000F807C1F785E00E94C607DF91CF911F9187
:100E60000F910C94B5037F928F929F92AF92BF9295
:100E7000CF92DF92EF92FF920F931F93CF93DF9366
:100E800000E512E084E5E82E81E0F82EC0E0D0E035
:100E9000712CAA24A394B12C4701F7018081F89406
:100EA000E82FE295EF70F0E021A18F70A50102C05C
:100EB000440F551F8A95E2F7CA01922F982B91A3F0
:100EC00092A18095892382A378940E94DD06E6E4AE
:100ED000F1E020E030E0C12CD12C4191A42FA2956B
:100EE000AF70B0E090968C9190E04F7002C09595F5
:100EF00087954A95E2F780FD08C0C501022E02C021
:100F0000880F991F0A94E2F702C080E090E0C82A97
:100F1000D92A2F5F3F4F2E303105F9F65FEFE51AE2
:100F2000F50AF40180810E94EA06C430D10511F06F
:100F30000E94DF06F80180819181C816D90621F050
:100F4000D182C08281E001C080E0782A21960E5FC4
:100F50001F4FC530D10509F09FCF272D45E06AE529
:100F600072E080E592E00E94C7070E94BF03872DD0
:100F7000DF91CF911F910F91FF90EF90DF90CF9075
:100F8000BF90AF909F908F907F9008950895FF92AB
:100F90000F931F93CF93DF93F82E092F162FD72F80
:100FA000C42F222349F081E080939E010E94411CBE
:100FB00090939D0180939C0180919E018823D9F09C
:100FC00080919C0190919D010E94591C069798F078
:100FD000EF2DF02FA12FBD2F80E090E04C2F50E09F
:100FE0008417950734F4219131912D933D93019607
:100FF000F7CF10929E01DF91CF911F910F91FF903B
:1010000008958091A50180FF0BC06091050185E0E6
:10101000689FB001112475956795759567952BC0EC
:1010200081FF09C06091050185E0689FB00111242E
:101030007595679520C082FF07C06091050185E026
:10104000689FB001112417C09091A4019923D1F099
:1010500060910401961788F72091050185E0289F8B
:1010600090011124929FA001939F500D112470E0D4
:10107000CA010E9459246038710540F46115710558
:1010800019F406C065E070E0862F08958FE7089593
:1010900081E008958091A50180FF08C06091010161
:1010A00070E0759567957595679521C081FF06C0BD
:1010B0006091010170E07595679519C082FF04C0C9
:1010C0006091010170E010C09091A301992399F003
:1010D000609100019617A0F780910101899FC001DE
:1010E000112470E00E9459246038710540F46115A4
:1010F000710519F406C061E070E0862F08958FE74E
:10110000089581E008958D3E21F40E9401088195A3
:1011100004C08E3E29F40E9401088093A90108951D
:101120008F3E21F40E940108819504C0803F29F47C
:101130000E9401088093A8010895893F19F40E9434
:101140004A0805C08A3F31F40E944A08819580937D
:10115000AA0108958B3F21F40E944A08819504C09A
:101160008C3F29F40E944A088093AB0108959FE0C8
:10117000980F983078F421E030E0A90102C0440FC4
:10118000551F9A95E2F7CA019091A701892B809388
:10119000A70108958D3F21F48091A50181600BC0C6
:1011A0008E3F21F48091A501826005C08F3F29F414
:1011B0008091A50184608093A50108958D3E39F446
:1011C0009091A90197FF35C01092A90159C08E3E98
:1011D00029F49091A9011916BCF32BC09091A80194
:1011E0008F3E29F497FF25C01092A80149C0803F87
:1011F00019F41916CCF31DC09091AA01893F29F466
:101200001916BCF41092AA013BC08A3F19F497FF4B
:1012100010C0F8CF8B3F39F49091AB0197FF09C014
:101220001092AB012DC08C3F21F49091AB011916A7
:10123000BCF39FE0980F983080F421E030E0A901E2
:1012400002C0440F551F9A95E2F7CA01809590910C
:10125000A70189238093A70113C08D3F21F48091BA
:10126000A5018E7F0BC08E3F21F48091A5018D7F5B
:1012700005C08F3F29F48091A5018B7F8093A50144
:101280008091A801811106C08091A901811102C03D
:101290001092A4018091AA01811106C08091AB0136
:1012A000811102C01092A30108950E94411C209157
:1012B000A801211104C02091A901222321F09093BB
:1012C000A2018093A1012091AA01211104C02091C3
:1012D000AB01222321F09093A00180939F0186EA25
:1012E00091E00C94A00FEF92FF920F931F93CF9376
:1012F000DF9300D000D000D0CDB7DEB786E0E6EABD
:10130000F1E0DE01119601900D928A95E1F7E090EF
:10131000A801F090A9010091AA011091AB011092CF
:10132000A8011092A9011092AA011092AB01E1103C
:1013300003C0FF2009F45DC08091A1019091A2013A
:101340000E94591CAC019091A401992339F020917D
:10135000060130E02417350758F04BC020910701F3
:101360008AE0289F900111242417350718F041C006
:101370009F3F19F09F5F9093A401EE2061F00E94BF
:1013800001081E1414F09FEF01C091E0989F902D6A
:1013900011249093A801FF2061F00E9401081F14FE
:1013A00014F09FEF01C091E0989F902D112490932D
:1013B000A9013091A8013323E1F02091A901222352
:1013C000C1F045EB3403C0011124992319F0909327
:1013D000A80103C081E08093A80135EB2303C0017D
:1013E0001124992319F09093A90103C081E08093FF
:1013F000A901011103C0112309F45DC080919F016F
:101400009091A0010E94591CAC019091A3019923D5
:1014100039F02091020130E02417350758F04BC015
:10142000209103018AE0289F900111242417350799
:1014300018F041C09F3F19F09F5F9093A3010023D4
:1014400061F00E944A08101614F09FEF01C091E06D
:10145000989F902D11249093AA01112361F00E946E
:101460004A08111614F09FEF01C091E0989F902D4B
:1014700011249093AB013091AA013323E1F0209124
:10148000AB012223C1F045EB3403C00111249923A1
:1014900019F09093AA0103C081E08093AA0135EB73
:1014A0002303C0011124992319F09093AB0103C0C9
:1014B00081E08093AB018091A80181110BC08091E4
:1014C000A901811107C08091AA01811103C08091F7
:1014D000AB0181110E945509EB82FC820D831E83B2
:1014E00086E0FE013196A6EAB1E001900D928A9560
:1014F000E1F726960FB6F894DEBF0FBECDBFDF91A1
:10150000CF911F910F91FF90EF900895E6EAF1E0DF
:1015100086E0DF011D928A95E9F71092A4011092EE
:10152000A3011092A501089582E290E00E948E240A
:10153000813281F483E290E00E948E24863051F45F
:1015400084E290E00E948E2491E0833009F090E0E4
:10155000892F01C080E081700895CF93C82F811139
:1015600002C06FEF01C061E282E290E00E949C2421
:10157000C11102C06FEF01C066E083E290E00E94FB
:101580009C24C11102C06FEF01C063E084E290E0CF
:10159000CF910C949C2480E00E94AD0A0C94B81A60
:1015A000089585E290E00E948E24682F70E080E02C
:1015B00090E0089585E290E00C949C240E94D00A6B
:1015C0000E94940A81110CC060E070E0CB010E947F
:1015D000DA0A0E941C0C0E94FB0C81E00C94AD0AFC
:1015E0000895CF93FB01C281CC23E9F09C012251E5
:1015F0003F452031310520F482510E940B0D0CC073
:101600008031FFE59F0751F481E00E949C1843E080
:1016100062E081E00E94A303C0E018C081319F45D1
:10162000A9F482E0F2CF8031EFE59E0711F481E06A
:1016300004C081319F4549F482E00E94BD1843E017
:1016400062E081E00E94A30301C0C1E08C2FCF9132
:1016500008952FEFFC0120830895EF92FF920F93DE
:101660001F93CF93DF93EC01062FE8818E2F90E03C
:10167000FC013197E331F10508F091C0EA5AFF4FC0
:101680000C946D24198289E04DC08981823039F033
:10169000833061F0813029F50E944D1C02C00E9408
:1016A000D10A9A838B837C836D837BC07E0110E09B
:1016B000812F0E94CF06F701928383831F5FF2E0A0
:1016C000EF0EF11C1530A1F76CC08981823049F40E
:1016D0006A817B818C819D810E9473240E94DA0A39
:1016E00060C0602FCE010E94290B5BC04B816A81D4
:1016F00089810E94EE0B9C838D8353C02C813D8198
:101700003227232732274B816A8189810E94070C67
:1017100048C00E941C0C45C00E94AE0C24C00E9410
:10172000B00C99838A833DC06B8170E089819A8176
:10173000AE014C5F5F4F9827892798270E94B30C12
:1017400030C06B8170E089819A81AE014C5F5F4F40
:101750009827892798270E94D80C23C00E94FB0C49
:1017600020C00E94DB0B89831CC06B8170E08981E3
:101770009A81AE014C5F5F4F9827892798270E9476
:101780005B0C0FC06B8170E089819A81AE014C5F68
:101790005F4F9827892798270E947F0C02C08FEF00
:1017A0008883602FCE01DF91CF911F910F91FF9021
:1017B000EF900C94771D84E0089550E0440F551F7E
:1017C0002CE1629F400D511D11249A016CE8869F07
:1017D000200D311D1124C901869608950F931F9382
:1017E000CF93DF930E94DD0B8C010E948E24C82FC3
:1017F000D0E0DC2FCC27C80101960E948E249E01E8
:10180000282BC901DF91CF911F910F9108950F935C
:101810001F93CF93DF93122F032F0E94DD0BEC0158
:10182000602F0E949C24612FCE010196DF91CF9101
:101830001F910F910C949C24AF92BF92CF92DF9294
:10184000EF92FF920F931F93CF93DF93A12CE12C84
:10185000F12CB12C00E010E0C0E0D0E06701C00E38
:10186000D11EFE01EE0FFF1FEC0DFD1DE65EFE4FCB
:10187000259134914C2F6B2D8A2D0E94070C2196B7
:10188000CE30D10571F7045E1F4FB39485E0B812D6
:10189000E3CF8CE8E80EF11CA39484E0A812D9CF22
:1018A000DF91CF911F910F91FF90EF90DF90CF903C
:1018B000BF90AF900895EF92FF920F931F93CF9335
:1018C000DF93EA017A01E60EF71E8C01C8018696C5
:1018D000CE15DF0569F0003322E0120720F40E94E4
:1018E0008E24888301C0188221960F5F1F4FEECF90
:1018F000DF91CF911F910F91FF90EF900895EF929C
:10190000FF920F931F93CF93DF93EA017A01E60EC4
:10191000F71E8C01C8018696CE15DF0559F00033FD
:1019200022E0120718F468810E949C2421960F5F20
:101930001F4FF0CFDF91CF911F910F91FF90EF904C
:101940000895462F843038F4753028F46E3018F43A
:10195000672F0C94EE0B80E090E0089580E10895ED
:101960008AEA91E00895EF92FF920F931F93CF932D
:10197000DF93EA017A01E60EF71E8C01C8018A5A4C
:101980009D4FCE15DF0569F00A3A21E0120720F4D9
:101990000E948E24888301C0188221960F5F1F4FFA
:1019A000EDCFDF91CF911F910F91FF90EF900895B0
:1019B000EF92FF920F931F93CF93DF93EA017A0187
:1019C000E60EF71E8C01C8018A5A9D4FCE15DF0521
:1019D00059F00A3A21E0120718F468810E949C2409
:1019E00021960F5F1F4FEFCFDF91CF911F910F9186
:1019F000FF90EF900895CF93DF93C6E5D2E060E0CB
:101A0000CE010E949C242196C11584E0D807B9F725
:101A1000DF91CF910895DF92EF92FF920F931F9382
:101A2000CF93DF9300D000D0CDB7DEB7F82E8FE094
:101A30008F15E8F18FEF93E00E948E24811137C05B
:101A400006E512E0FF2069F0011584E0180779F13E
:101A5000C8010E948E24811101C0FA940F5F1F4FAC
:101A6000F1CF19821A821B821C82DD24D394780163
:101A70008FEFE81AF80AC8010E948E2489831A821F
:101A80008823A9F09FEF980F933058F48A83D98266
:101A90000E5F1F4FC7010E948E248B83882339F06D
:101AA0007801CE0101960E94E3048701E0CF0F90F8
:101AB0000F900F900F90DF91CF911F910F91FF909A
:101AC000EF90DF9008950F931F93CF93DF93C42F70
:101AD000D22FFC0182818823C9F04093AE010E947D
:101AE000411C9093AD018093AC0180E28C0F883053
:101AF00008F057C0C77081E001C0880FCA95EAF7A7
:101B0000DF91CF911F910F910C943F128091AE0104
:101B1000481330C08091AC019091AD010E94591CD6
:101B2000883C910538F510E21D0FCD17B9F080E221
:101B30008C0F883040F4C77081E001C0880FCA95CF
:101B4000EAF70E944612183028F581E09D2F977021
:101B500001C0880F9A95EAF70E943F12802F0E94D9
:101B600036121830F0F4D77081E001C0880FDA9592
:101B7000EAF70AC080E28C0F883098F4C77081E0E1
:101B800001C0880FCA95EAF7DF91CF911F910F919D
:101B90000C944612802FDF91CF911F910F910C94DE
:101BA0003612DF91CF911F910F9108950F939C01F1
:101BB000CB01243F4CE5340731F188F4293DFCE5A5
:101BC0003F07D9F02A3D4CE5340779F1283D3C45E3
:101BD000A9F506E221EE41EE68ED7CE52BC0263F3B
:101BE000FCE53F07E1F0A8F0273F3C4539F507E267
:101BF00025EE46EE67EF7CE51DC007E225EE45EEDB
:101C000069ED7CE517C006E221EE40EE64EF7CE56D
:101C100011C007E225EE44EE65EF7CE50BC006E25D
:101C200021EE42EE66EF7CE505C008E221E045EEDC
:101C30006AED7CE50E94630D80E008C0FC018281B2
:101C4000882319F01092AE0101C081E00F91089530
:101C5000CF93DF93EC01FB018281882309F41FC13C
:101C6000C230FCE5DF0708F41BC1C6319CE5D9078B
:101C700038F09E012B5F3C452930310508F010C13A
:101C80000E94D11A9093690280936802C031ECE5FA
:101C9000DE0709F4C3C008F041C0C8308CE5D8079E
:101CA00009F49AC0F0F4C430ECE5DE0709F487C00B
:101CB00068F4C2308CE5D80709F477C0C330DC453E
:101CC00009F0E3C080916802826076C0C630ECE51E
:101CD000DE0709F46EC008F07BC08091680288605E
:101CE0006BC0CC308CE5D80709F485C068F4CA30E5
:101CF000ECE5DE0709F474C008F079C00E94C31453
:101D000080916802806858C0CE308CE5D80709F40D
:101D100076C008F07FC0809168028BC0CC3FECE5B4
:101D2000DE0709F44FC018F5C3318CE5D80709F474
:101D30007DC078F4C131ECE5DE0709F473C0C2312F
:101D4000DC4509F0A2C00E94C314809168028F771D
:101D500033C0C5318CE5D80709F472C008F486C0D9
:101D6000CB3FDC4509F091C0809169023EC0C115AE
:101D7000FDE5DF0709F45FC058F4CE3F9CE5D907C5
:101D800009F444C008F43FC08091690282602DC00C
:101D9000C230FDE5DF0709F475C008F45DC0C3304B
:101DA000DD4509F072C080E06EC0809168028160FC
:101DB00003C08091680280618093680266C0809150
:101DC000680211C0809169028260809369025DC0DF
:101DD000809168028062F0CF809168028064ECCFCD
:101DE0008091680288608460E7CF8160EECF809147
:101DF00068028E7FE1CF809168028D7FDDCF809178
:101E00006802877FD9CF8091690218C080916902EA
:101E10008D7FDBCF809168028F7ECECF809168026C
:101E20008F7DCACF809168028F7BC6CF8091680278
:101E3000877F8B7FC1CF809169028D7F8E7FC5CFD9
:101E40008091680282FB222720F991E0922790FB83
:101E500082F990FB83F9B0CF80916902982F909519
:101E600091708E7F892B90FB81F9AFCF0E94C314B4
:101E70008091680287FB222720F991E0922790FB4E
:101E800087F99ACF81E00E94671B80916802909148
:101E900069020E94E21A0E94C31480E001C081E03E
:101EA000DF91CF910895CF93DF9386319C4541F523
:101EB000EB010E94121A982F8A812091080130911B
:101EC0000901882379F09A7A81E009F480E080930F
:101ED000AF01911102C069E201C065E3C9010E942E
:101EE000AE1B0AC08091AF01811102C069E201C03E
:101EF00065E3C9010E94B01B0E94531A80E001C033
:101F000081E0DF91CF9108959093B5018093B40162
:101F10000895E091B401F091B501309721F001905E
:101F2000F081E02D099480E00895E091B401F091F2
:101F3000B501309721F00280F381E02D09940895D6
:101F4000E091B401F091B501309739F022E0DC0165
:101F50002C930480F581E02D099408952091B2011D
:101F60003091B3012817390771F09093B301809332
:101F7000B201E091B401F091B501309721F00680F3
:101F8000F781E02D099408952091B0013091B101BD
:101F90002817390771F09093B1018093B001E09157
:101FA000B401F091B501309721F00084F185E02D66
:101FB000099408950E944D1C6093C5017093C60159
:101FC0008093C7019093C8016093C1017093C201CF
:101FD0008093C3019093C401089585B7806885BF3D
:101FE00085B7806885BF089581E008950C94F40F4B
:101FF00008950C94F80F0C94F80F0C94FB0F0C94AC
:10200000F80F0C94FF0F0C94F80F0E94ED0F86EB65
:102010009AE10E94B21C0E9403100C9401100E94CD
:10202000381C0E9401070E94DE0A0E94CD1C0C94FD
:10203000FD0F6F927F928F929F92AF92BF92CF923D
:10204000DF92EF92FF920F931F93CF93DF93CDB761
:10205000DEB72A970FB6F894DEBF0FBECDBF0E9441
:10206000F90F0E94F80F0E94330781110E94DA0FC6
:1020700037EB832E31E0932E00E010E0C02E802F4E
:102080000E94CF065C01F401619071904F016826B7
:10209000792661147104B1F40F5F1F4F05301105EB
:1020A00069F78FEF89838A831B820E94411C8160BC
:1020B000782F9D838C8349815A816B818D810E9409
:1020C000D3103AC08091440281FD0E94D806D12CE1
:1020D000EE24E394F12CC3018E219F21892B29F159
:1020E0000E94F60F8823A9F0DE82CF82AE20BF20A7
:1020F00081E0AB2809F480E088870E94411C816060
:10210000782F9A8789874E815F8168858A850E94AA
:10211000D310000F111FF801E954FE4F8081918107
:10212000E826F926F182E08207C0D394EE0CFF1C6A
:10213000FEE0DF12D0CFB0CF0E9473090E94890F5A
:102140009091B6018917D1F00E94890F8093B60152
:102150002A960FB6F894DEBF0FBECDBFDF91CF91A8
:102160001F910F91FF90EF90DF90CF90BF90AF90B5
:102170009F908F907F906F900C94ED042A960FB6ED
:10218000F894DEBF0FBECDBFDF91CF911F910F91AD
:10219000FF90EF90DF90CF90BF90AF909F908F9087
:1021A0007F906F900895DF92EF92FF920F931F93AD
:1021B000CF93DF93CDB7DEB72B970FB6F894DEBF82
:1021C0000FBECDBFF42E052F162FE72ED82E61118E
:1021D0000E94321AFE01319686E0DF011D928A9537
:1021E000E9F77E2D4F2D502F612F8D2D9E810E945E
:1021F0007C172B960FB6F894DEBF0FBECDBFDF91D4
:10220000CF911F910F91FF90EF90DF900895FC0107
:10221000808191810E94D3190895CF93882309F476
:10222000A4C0C82F8238C1F40E94890F81FD9DC0CF
:1022300069E380910801909109010E94AE1B0E9400
:10224000531A2FEF81EE94E0215080409040E1F747
:1022500000C0000069E319C0833801F50E94890FAE
:1022600080FD83C063E580910801909109010E947F
:10227000AE1B0E94531A2FEF81EE94E02150804054
:102280009040E1F700C0000063E580910801909163
:1022900009010E94B01BCF910C94531A8438C1F4E9
:1022A0000E94890F82FD61C067E4809108019091CE
:1022B00009010E94AE1B0E94531A2FEF81EE94E099
:1022C000215080409040E1F700C0000067E4DDCF7E
:1022D0008CEF8C0F813AD0F46C2F80910801909193
:1022E00009010E94781B882349F06C2F8091080116
:1022F000909109010E94B01B0E94531A6C2F80918B
:102300000801909109010E94AE1BC5CF80E28C0F9D
:10231000883048F4C77081E001C0880FCA95EAF799
:102320000E94151AB8CFEBE5EC0FE33040F4F0E073
:10233000E957FE4F808190E0CF910C94AE0FE8E515
:10234000EC0FE73150F4F0E0EE0FFF1FE75AFE4FBD
:1023500080819181CF910C94C40FCD3E30F08C2FB1
:102360000E948308CF910C945509CF91089588233A
:1023700009F464C0823879F40E94890F81FF5EC03D
:1023800069E380910801909109010E94AE1B0E94AF
:10239000531A69E310C08338B1F40E94890F80FF9B
:1023A0004DC063E580910801909109010E94AE1B28
:1023B0000E94531A63E580910801909109010E94DF
:1023C000B01B0C94531A843879F40E94890F82FF51
:1023D00035C067E480910801909109010E94AE1B0D
:1023E0000E94531A67E4E7CF9CEF980F913A10F4DC
:1023F000682FE1CF90E2980F983050F4877091E009
:1024000001C0990F8A95EAF7892F0E941B1AD9CF2C
:102410009BE5980F933020F480E090E00C94AE0F91
:1024200098E5980F973120F480E090E00C94C40F69
:102430008D3E20F00E94DE080C94550908951F93EC
:10244000CF93DF93182FEB010E940D11209741F0DD
:102450008FE99FE00197F1F700C000002197F6CFC8
:10246000812FDF91CF911F910C94B711893319F00F
:1024700060E070E002C060E570E00C941F128823F9
:1024800021F00E94151A0C94531A0895882321F004
:102490000E941B1A0C94531A0895CF92DF92EF9268
:1024A000FF920F931F93CF93DF937C01D62FC72FFB
:1024B000FC011281058102950F700E940B1A88237E
:1024C00099F0112389F08C2F807F803421F080E2F5
:1024D0008D0F883048F082E00E949D1A0E940B1AEE
:1024E00091E0D82ED92601C0D12CCC2EC2948FE0F9
:1024F000C8228C2D90E08C30910508F0B6C1FC010B
:10250000E759FF4F0C946D248C2F807FCF70882368
:1025100011F0C295C07F112399F0CC2309F491C129
:1025200080E28D0F883010F0D11104C08C2F0E94F2
:10253000151A03C08C2F0E94251A0E94531A81C1BC
:102540008D2F0E94B711CC2309F48FC180E28D0F2B
:10255000883010F0D11104C08C2F0E941B1A03C0C8
:102560008C2F0E942B1A0E94531A7FC18C2F807FC0
:10257000CF70803211F0C295C07FDD2319F0D130C9
:10258000C9F022C0112371F0002341F0013031F471
:102590000E94381A8C2B0E94401A67C10E94381A78
:1025A0008C2B1DC0002319F0013009F45EC10E947C
:1025B000491A25C0112321F0063008F056C10EC07B
:1025C000053008F052C11BC0112361F0002331F027
:1025D000F701858180FF35C18F7085838C2F0E9424
:1025E0003F1243C1002359F0D93309F03BC1FFEF3B
:1025F00007EE13E0F15000401040E1F731C18C2F9D
:102600000E94461232C18C2F86958695837019F0F0
:10261000813061F02AC1112321F08D2F9C2F9370FE
:1026200002C080E090E00E94AE0F27C1112321F08C
:102630008D2F9C2F937002C080E090E00E94C40F09
:102640001CC18D2F112319F00E94830802C00E9423
:10265000DE080E94550911C18C2F837009F047C014
:10266000111107C12D2F229526952770220F220FB9
:102670006D2F6F70862F90E0A0E0B0E0022E04C0B6
:10268000880F991FAA1FBB1F0A94D2F7D4FF10C04E
:102690004FE050E060E070E004C0440F551F661F3B
:1026A000771F2A95D2F7409550956095709503C095
:1026B00040E050E0BA01C695C695C3708A019B01FF
:1026C000082B192B2A2B3B2BC901B801C23049F02A
:1026D00058F4C13019F00E945018CBC00E943E1827
:1026E000C8C00E946218C5C00E943C18C2C0112315
:1026F00019F08C2F817001C08695882309F4B9C028
:102700002D2F229526952770220F220F6D2F6F7087
:10271000862F90E0A0E0B0E0022E04C0880F991F41
:10272000AA1FBB1F0A94D2F7D4FF10C04FE050E09D
:1027300060E070E004C0440F551F661F771F2A95A4
:10274000D2F7409550956095709503C040E050E0F9
:10275000BA01C695C695C3708A019B01082B192B37
:102760002A2B3B2BC901B801C23049F058F4C130C3
:1027700019F00E9415197DC00E9403197AC00E94A9
:10278000271977C00E94761874C0CF70112339F0D2
:102790008C2F0E949C188D2F0E943F126AC08D2F93
:1027A0000E9446128C2F0E94BD1863C0D23F01F1D7
:1027B00028F4D03F41F0D13FA1F03FC0D33FF9F022
:1027C000D43F39F13AC0112341F0053008F04DC033
:1027D0008C2F8F710E94E21848C0063008F045C067
:1027E000F7CF112339F08C2F8F710E949C183DC0B8
:1027F0001123C9F38C2F8F710E94BD1836C011238D
:1028000029F08C2F8F710E9487182FC00E94821888
:102810002CC0112349F0CF718C2F0E949C1863E0CB
:102820008C2F0E94881A21C081E00E949D1A0230DC
:10283000E0F082E00E949D1A18C0112331F00023BD
:1028400091F28D2F0E940D1110C0002399F2D933FF
:1028500049F41FEF27EE33E0115020403040E1F7FC
:1028600000C000008D2F0E94B71188EF8C0D8430BE
:1028700020F40E94890F0E94ED04DD20C9F00E941F
:10288000071A80FD15C0F70112820E94011A0E94EA
:102890009C18C7010E9479140E94011ADF91CF9100
:1028A0001F910F91FF90EF90DF90CF900C94BD1887
:1028B000DF91CF911F910F91FF90EF90DF90CF901C
:1028C00008950F931F93CF93DF93EC016881798173
:1028D0008A810E94DE198C010E9439190E942A18EF
:1028E000B801CE010E944D12DF91CF911F910F913F
:1028F0000895CF93DF93EC01988189812B813C81EE
:10290000232B31F08F3F31F481E09F3F19F403C056
:1029100081E001C080E080FD19C0CE010E94D1039A
:1029200081110CC00E940B1A882381F08A818823B0
:1029300069F082E0DF91CF910C949D1ACE010E9444
:102940006114CE01DF91CF910C944403DF91CF91BC
:10295000089580E090E00E94AE0F80E090E00E9439
:10296000C40F0E94321A0E94351A0E94531A0E9404
:10297000860A0C94550980910801909109010E94E2
:10298000B21B0C94A9140E94221A0C94BB14E92FB8
:10299000E295EF704E2F50E0FA013297EE30F105DC
:1029A000B0F4EB58FF4F0C946D24803F91F018F475
:1029B000883E68F40EC0843F51F40BC0883E48F056
:1029C000813F29F406C093FB882780F9089580E0B1
:1029D000089581E008950E94D3190E94C7140895B4
:1029E000CF93DF9300D000D01F92CDB7DEB70F900A
:1029F0000F900F900F900F90DF91CF910895CF938C
:102A0000DF9300D000D000D0CDB7DEB726960FB64A
:102A1000F894DEBF0FBECDBFDF91CF9108951F9315
:102A2000CF93DF93C091CA0116E08091CB01C81704
:102A300099F0D0E01C9FF0011D9FF00D1124E4538C
:102A4000FE4F4081518162817381848195810E9412
:102A5000FF142196C770E9CFDF91CF911F910895A0
:102A60004091FC015091FD016091FE017091FF01C8
:102A700080910002909101020C94FF140F931F9318
:102A8000CF93DF938091010282958F7009F05DC032
:102A90008091FE01882309F458C08091CA011091E9
:102AA000CB016091FC017091FD01C091FF01D091BB
:102AB000000291E06F3F09F090E0292F06E08117B6
:102AC00009F443C0209721F07F3F21F030E003C09C
:102AD00031E001C0322F90E030FD34C0089FF0019A
:102AE000099FF00D1124DF01A453BE4F11963C91B4
:102AF0001197371327C03C91361324C012963C918E
:102B0000129731111FC013964D915C9114974C1B75
:102B10005D0B483C5105B0F4809101028F708061DB
:102B200080930102EF52FE4F80818F70806180831D
:102B30008CEF91E00E947914DF91CF911F910F915A
:102B40000C940F1501968770BACFDF91CF911F912A
:102B50000F9108959F92AF92BF92CF92DF92EF9222
:102B6000FF920F931F93CF93DF93CDB7DEB761979B
:102B70000FB6F894DEBF0FBECDBF8C0185E0F80123
:102B8000DE011D9601900D928A95E1F7F8014081D2
:102B90005181E2809091FC016091FD012091FF0143
:102BA000309100022115310531F06F3F31F481E0A1
:102BB0009F3F19F403C081E001C080E0F82FF1705D
:102BC0009F2E80FD46C1F801A380B4808CEFC82EF3
:102BD00081E0D82EF090FE01F501E21BF30BFF20FF
:102BE00009F4DFC080910102E83CF10508F09BC0C8
:102BF000282F207F09F052C0561313C0491311C06B
:102C0000FE2CE1100EC08F708061809301020E9443
:102C10003015C6010E94791480910102F801858364
:102C200058C1AB2831F05F3F31F481E04F3F19F4D8
:102C300003C081E001C080E080FD03C081E08E25FB
:102C400002C080E090E0F82FF170FF2E80FF1CC0E2
:102C50008091CA012091CB0136E0821709F417C197
:102C600090E0389FF001399FF00D1124E453FE4F9E
:102C70006181561306C06081461303C06281E6126B
:102C800003C001968770E9CFFE2CEE2009F421C124
:102C9000809101028160809301025AC0561306C0E0
:102CA000491304C0E11002C0F8019FC04D875E8740
:102CB0008D859E850E94EB14882379F1EE2069F1C1
:102CC00020910102822F82958F7090E0029774F01C
:102CD0008091FC019091FD0198878F831986BB86B6
:102CE000AA862C87CE0107960E94791486E0F80107
:102CF000ACEFB1E001900D928A95E1F70E943E158C
:102D00000E9430150DC0561729F14D875E878D85BD
:102D10009E850E94EB1481112CC0C8010E94791479
:102D2000FF24F394D6C0282F207F69F77A2DB98A23
:102D3000A88A6E2D89890E94F0148CEF91E00E9480
:102D4000791486E0F60111928A95E9F70E94301510
:102D5000F12CBFC04913D9CFE110D7CFF80185833B
:102D6000C8010E94791486E0F60111928A95E9F76C
:102D7000B0C0EE2091F220910102822F82958F70D7
:102D800090E002970CF4B2CF8091FC019091FD018C
:102D90009A8389831B82BD82AC822E83CE010196E9
:102DA000A3CFE83CF10508F047C0FE2CEE2009F463
:102DB000B4CF561330C049132EC02091010220FD1C
:102DC00021C0822F82958F70482F50E04115510508
:102DD000C9F0F80125834F30510541F08F5F982FDE
:102DE0009295907F822F8F70892B8583C8010E94D6
:102DF000791486E0F801ACEFB1E001900D928A956C
:102E0000E1F742C086E0F801ACEFB1E001900D922D
:102E10008A95E1F75EC04D875E878D859E850E940D
:102E2000EB14811163CF80910102816080930102D4
:102E3000C8010E9479144DC07A2DB98AA88A6E2DD6
:102E400089890E94F01486E0F60111928A95E9F7CB
:102E50001BC0EE2009F461CF4D875E878D859E856E
:102E60000E94EB14F82E882309F457CF86E0F8016E
:102E7000ACEFB1E001900D928A95E1F78CEF91E013
:102E80000E9407110E943E150E94301522C04D87F6
:102E90005E878D859E850E94D319292F22952F70DC
:102EA000223028F49F7039F0811105C00BC0243006
:102EB00028F49F7049F4805E883020F0C8010E9499
:102EC00079149F2CF92C05C0F8019581907F99F712
:102ED000F9CF8F2D61960FB6F894DEBF0FBECDBF30
:102EE000DF91CF911F910F91FF90EF90DF90CF90E6
:102EF000BF90AF909F9008951F93CF93DF93CDB76E
:102F0000DEB72C970FB6F894DEBF0FBECDBF4F8350
:102F1000588769877A878B879C87CE0107960E949E
:102F2000AA158823D1F09F8188852A853B85232B8C
:102F300031F08F3F31F481E09F3F19F403C081E00D
:102F400001C080E080FD47C04F81588569857A8542
:102F50008B859C850E94FF143EC086E0FE0137965B
:102F6000DE01119601900D928A95E1F7FF81E885C7
:102F70006A857B856115710531F0EF3F31F481E0A1
:102F8000FF3F19F403C081E001C080E080FD23C051
:102F90002091CB0130E0C9010196877099274091BB
:102FA000CA0150E084179507F1F1F983EA837D8324
:102FB0006C8396E0929FD001939FB00D1124A4538F
:102FC000BE4FFE01319601900D929A95E1F78093E4
:102FD000CB010E940F1516E08091CA019091CB01A0
:102FE000891771F1189FC001112484539E4F0E94CC
:102FF000AA15882329F1E091CA011E9FF00111242E
:10300000E453FE4F408151816281738184819581B7
:103010000E94FF148091CA0190E001968770992761
:103020008093CA01D9CF0E94C3141092CB01109291
:10303000CA01ECEFF1E086E0DF011D928A95E9F725
:103040002C960FB6F894DEBF0FBECDBFDF91CF91A7
:103050001F910895089508950C942B180C942C1822
:103060000E942E18609333027093340280933502CD
:10307000909336020C94A9140C9430180F931F935C
:1030800000913302109134022091350230913602C2
:10309000602B712B822B932B1F910F910C94301866
:1030A0000F931F9300913302109134022091350247
:1030B0003091360260237123822393231F910F9155
:1030C0000C9430180F931F93009133021091340227
:1030D000209135023091360260277127822793278D
:1030E0001F910F910C9430180C942B180E94741897
:1030F00060932F02709330028093310290933202DA
:103100000C94A91460E070E0CB010C9476180F9336
:103110001F9341E050E060E070E08A019B0104C031
:10312000000F111F221F331F8A95D2F7C901B80162
:103130001F910F910C9476180F931F9341E050E06C
:1031400060E070E004C0440F551F661F771F8A952A
:10315000D2F780912F0290913002A0913102B0916C
:1031600032028A019B01082B192B2A2B3B2BC90108
:10317000B8011F910F910C9476180F931F9341E0A3
:1031800050E060E070E004C0440F551F661F771FD9
:103190008A95D2F7409550956095709580912F0251
:1031A00090913002A0913102B09132028A019B01CC
:1031B000082319232A233B23C901B8011F910F912A
:1031C0000C9476180F931F9341E050E060E070E09C
:1031D00004C0440F551F661F771F8A95D2F7809150
:1031E0002F0290913002A0913102B09132028A01F7
:1031F0009B01082719272A273B27C901B8011F91DE
:103200000F910C9476180F931F9300912F02109139
:1032100030022091310230913202602B712B822BCF
:10322000932B1F910F910C9476180F931F9300917D
:103230002F0210913002209131023091320260232E
:103240007123822393231F910F910C9476180F936F
:103250001F9300912F021091300220913102309182
:10326000320260277127822793271F910F910C94B8
:10327000761808952EE0929F800D1124E82FE69590
:10328000E695E695877051E001C0550F8A95EAF7FB
:1032900085E0E89FF0011124EE5FFD4F20E030E073
:1032A00070E04081CB01022E02C0969587950A946A
:1032B000E2F78170819584278523842781932F5F8E
:1032C0003F4F2530310569F708952EE0929F800D1C
:1032D0001124682F669566956695982F977085E0FE
:1032E000689FB001112440E050E080E0FB01E40F52
:1032F000F51FEE5FFD4F208130E0092E02C03695AC
:1033000027950A94E2F721703327042E01C0220F7B
:103310000A94EAF7822B4F5F5F4F4530510531F732
:103320000895BF92CF92DF92EF92FF920F931F9377
:10333000CF93DF938C01C0902F02D0903002E090A9
:103340003102F09032028091330290913402A091C8
:103350003502B0913602C82AD92AEA2AFB2ACFE1DF
:10336000D0E0D701C6010C2E04C0B695A79597955D
:1033700087950A94D2F780FD04C0219790F7B12C6D
:1033800007C0BC2EB8018C2F0E94F6040197A9F348
:103390008B2DDF91CF911F910F91FF90EF90DF90D8
:1033A000CF90BF900895CF93DF93EC010E949119C5
:1033B000BE010E94F604DF91CF9108951F93CF9331
:1033C000DF93EB019091C901992321F0CB010E9479
:1033D000D31913C0882349F0CB010E949119182FEB
:1033E000682FCE010E943A1904C0CB010E946519D2
:1033F000182FBE01812F0E94F604DF91CF911F91FB
:1034000008958091370285958595859508958091D9
:1034100037028770089590913702977081E009F420
:1034200080E0089580914302089590914302892B92
:10343000809343020895809590914302892380935D
:103440004302089510924302089590914202892BFD
:10345000809342020895809590914202892380933F
:103460004202089510924202089510924102089576
:1034700080913802089508950C943B1A0C943C1ADC
:1034800090913802981721F0809338020C943E1ADC
:10349000089580913802882329F01092380280E044
:1034A0000C943E1A0895E0910801F0910901809171
:1034B00043028083E0910801F0910901908180919D
:1034C0004202892B8083E0910801F09109019081EB
:1034D00080914102892B808380913802882381F07A
:1034E000E0910801F09109019081892B80838091FE
:1034F0000801909109010E946C1B81110E94491AD8
:1035000080910801909109010C94950F0C943B1A3D
:1035100098E0899F90011124262B209337020E9466
:103520009C18809137028595859585950C94861A0F
:103530001092370280E00C94861A20913702809511
:10354000822380933702982F977079F430E0482FC8
:10355000082E000C550B2417350739F085958595F5
:1035600085950E94BD180C94981A089580E00895DE
:103570006FEF7FEF80E090E00C94BA2480E090E061
:103580000E94962421E08B3E9E4F09F020E0822F7E
:10359000089582E090E00C948E2483E090E00C94F7
:1035A0008E24CF9384E090E00E948E24C82F81E285
:1035B00090E00E948E242C2F30E0A901582BCA01E4
:1035C000CF910895CF93C92F682F84E090E00E9497
:1035D0009C246C2F81E290E0CF910C949C24AB0151
:1035E000BC018FE090E00C94AE24AB01BC0183E100
:1035F00090E00C94AE2460E070E0CB010C94F51ADE
:1036000060E070E0CB010E94EF1A0C94FB1A6BEEA5
:103610007EEF80E090E00E94BA2460E082E090E0DB
:103620000E949C2460E083E090E00E949C24109221
:10363000330210923402109235021092360260E08A
:1036400084E090E00E949C2460E081E290E00E948F
:103650009C2460E085E090E00E949C2460E086E08D
:1036600090E00E949C246FEF87E090E00E949C24F1
:1036700040E050E0BA0188E090E00E94AE2460E0B3
:103680008DE090E00E949C2440E050E0BA0188E187
:1036900090E00E94AE2460E087E190E00E949C24CC
:1036A00040E050E0BA018CE190E00E94AE2460E07E
:1036B00080E290E00E949C2440E050E0BA0188E162
:1036C00090E00E94AE240C94001B0C94071B682F02
:1036D0008EE090E00C949C24FC01329697E080E010
:1036E000915029F021912223D9F38F5FF9CF0895CA
:1036F000662349F0FC01329608962191621729F061
:10370000E817F907D1F780E0089581E008959C015A
:10371000FC0132969FEF80E04191461789F09F3F70
:1037200019F4411101C0982F8F5F8630A9F79F3F90
:1037300039F0F901E90FF11D97FDFA9562830895BB
:1037400008959C012A5F3F4FFC014281461301C04E
:103750001282019682179307B9F708950C94871B7C
:103760000C94A11B029626E0FC0111922A95E9F720
:10377000089508950C94B91B0C94B91BCF930E9423
:10378000BC1B0E9433070E94BA1BC0E08C2F0E9412
:10379000CF06892B29F4CF5FC530C1F780E001C087
:1037A00081E0CF9108950C94B91B0C94D31B8091A8
:1037B0006E02843049F10E94D51B80E00E94ED0426
:1037C0001092450220E488E190E00FB6F894A895A5
:1037D000809360000FBE2093600083B7817F846078
:1037E00083BF83B7816083BF7894889583B78E7FCA
:1037F00083BF0FB6F894A89580916000886180938C
:103800006000109260000FBE08950C94B91B0E94D6
:10381000C3140E94890F0E94ED040C94051C1F9292
:103820000F920FB60F9211248F939F93AF93BF9374
:1038300080914502811113C08091640290916502CC
:10384000A0916602B09167024196A11DB11D8093BF
:10385000640290936502A0936602B0936702BF91E1
:10386000AF919F918F910F900FBE0F901F90189561
:1038700082E084BD93E095BD9AEF97BD80936E0082
:1038800008952FB7F8948091640290916502A091F9
:103890006602B09167022FBF08952FB7F894609128
:1038A00064027091650280916602909167022FBF59
:1038B00008959C014FB7F89480916402909165023D
:1038C000A0916602B09167024FBF821B930B0895CF
:1038D00078941F920F920FB60F9211248F939F939B
:1038E000AF93BF938091640290916502A0916602AC
:1038F000B09167020196A11DB11D8093640290935F
:103900006502A0936602B0936702BF91AF919F9149
:103910008F910F900FBE0F901F90189581E08093AC
:10392000E00080E28093D8001092C9008FE19EE40D
:103930000197F1F700C0000087E090EBDC01809375
:10394000770290937802A0937902B0937A029CE078
:1039500088E10FB6F894A895809360000FBE90930D
:103960006000FFCF90939B0180939A0108950C947F
:10397000CB0A0E9433078FE39CE90197F1F700C05F
:1039800000000E94330780E00E94CF0680FF04C041
:103990000E94B71C0C948E1C08950E94BE1A8111BF
:1039A00002C00E94651B0E94C91A809344020E94B3
:1039B000D11A90936902809368020E94CD1A682FF1
:1039C00070E080E090E00E943C1860912F027091BE
:1039D000300280913102909132020C9474188091DF
:1039E0004E020895CF93DF9300D01F92CDB7DEB77C
:1039F00090916E02943011F589837B836A83909352
:103A0000E9008FEF9091E800815095FD06C095ED9B
:103A10009A95F1F700008111F5CF8091E80085FFBC
:103A20000DC040E050E063E070E0CE0101960E94DE
:103A3000701F8091E8008E778093E8000F900F90C0
:103A40000F90DF91CF910895BC0184E00C94F21C9B
:103A5000BC0183E00C94F21C24E02093E9002FEFDA
:103A60003091E800215035FD06C035ED3A95F1F76B
:103A700000002111F5CF2091E80025FF0BC040E0A8
:103A800050E066E070E00E94701F8091E8008E7741
:103A90008093E8000895CF93DF9321E02093E9001D
:103AA0002FEF3091E800215035FD06C035ED3A95F5
:103AB000F1F700002111F5CF2091E80025FF14C097
:103AC000EC0140E050E068E070E00E94701F8091DF
:103AD000E8008E778093E80088E0FE01A6E4B2E07B
:103AE00001900D928A95E1F7DF91CF910895CF93E0
:103AF000603219F520916E022430F9F4C091E9008A
:103B0000CF703091EC00232F217030FD20E8C22BC4
:103B100022E02093E9002091E80020FF0BC040E064
:103B200050E060E270E00E94701F8091E8008E77A4
:103B30008093E800CF70C093E900CF910895809101
:103B40006D02811109C00E944C210E94A92180911F
:103B5000E20084608093E200089510926D0208955F
:103B600008950895089542E061EC81E00E94C52027
:103B700042E261EC84E00E94C52042E261EC82E016
:103B80000E94C52042E260EC83E00C94C520809145
:103B90007002833009F462C030F4813071F08230F9
:103BA00009F49BC008958A3009F487C08B3009F46A
:103BB0006DC0893009F0A9C020C080916F02813AA0
:103BC00009F0A3C08091E800877F8093E80080918E
:103BD000730290917402892B21F468E086E492E0EC
:103BE00003C060E080E090E070E00E9406208091D9
:103BF000E8008B778093E800089580916F0281320E
:103C000009F083C08091730290917402009719F0BB
:103C1000029709F07AC08091E800877F8093E800DE
:103C20008091E80082FD05C080916E028111F8CF7D
:103C30006CC02091F3008091F20090E0922B0297EB
:103C400029F48091F1008B7F813021F48091F10083
:103C500080934E028091E8008B7753C080916F0271
:103C6000813A09F052C08091730290917402892BBD
:103C700009F04BC08091E800877F8093E800809135
:103C8000E80080FFFCCF8091140136C080916F0264
:103C90008132D9F58091730290917402892BA9F534
:103CA0008091E800877F8093E8000E94FA2080914D
:103CB0007102809314010C94C31480916F028132BD
:103CC00021F58091E800877F8093E8000E94FA2028
:103CD0008091720280934F02089580916F02813A21
:103CE000A1F48091E800877F8093E8008091E8004C
:103CF00080FFFCCF80914F028093F1008091E8001B
:103D00008E778093E8000C94FA2008951F93CF9348
:103D1000DF93CDB7DEB7A0970FB6F894DEBF0FBE26
:103D2000CDBF84B7877F84BF0FB6F894A8958091E4
:103D30006000886180936000109260000FBE90E088
:103D400080E80FB6F89480936100909361000FBEF5
:103D50000E9405100E944C210E94A9218091E2003E
:103D600084608093E20078940E943E240E940F10A9
:103D70008AE091E00E94840F13E080916E0285300A
:103D8000A9F480916E02853079F40E94D71B80914E
:103D90006C028823B1F30E94BE1B882391F30E941A
:103DA0005A1F0E94C314EDCF0E94071C0E941910D5
:103DB00080916E02843009F51093E9008091E8004B
:103DC00082FF1BC08091E80085FF0AC040E050E000
:103DD00060E270E0CE0101960E94BB1F91E001C03D
:103DE00090E08091E8008B778093E800992329F098
:103DF00060E2CE0101960E942D0B0E94F90F0E94F5
:103E0000F80FBBCF0C94041F292F33272330310523
:103E1000C9F060F42130310581F02230310509F01C
:103E200041C08BE590E022E234E040C02132310510
:103E3000E1F02232310531F135C082E190E02DE729
:103E400034E034C099278130910549F028F0029779
:103E500049F5EAEFF3E005C0EEE1F4E002C0E6E088
:103E6000F4E0849190E09F0121C063307105D0F4AB
:103E7000660F771FFB01ED56FE4F2081318189E0EF
:103E800090E014C06330710568F4FB01EE0FFF1F72
:103E9000E357FE4F20813181FB01E657FE4F8081C1
:103EA00090E004C080E090E020E030E0FA0131834F
:103EB0002083089580E189BD82E189BD09B400FEB7
:103EC000FDCF8091D8008F7D8093D8008091E00055
:103ED00082608093E0008091E00081FDFCCF089536
:103EE000CF92DF92EF92FF920F931F93CF93DF93C6
:103EF000EC018B017A010E941921811133C0E11478
:103F0000F10439F0F70180819181081B190BC80F6A
:103F1000D91FC12CD12C0115110519F18091E80090
:103F200085FD16C08091E8008E778093E800E1144B
:103F3000F10449F0F70180819181C80ED91ED18228
:103F4000C08285E00FC00E941921882321F30AC096
:103F500089918093F10001501109FFEFCF1ADF0A18
:103F6000DACF80E0DF91CF911F910F91FF90EF901A
:103F7000DF90CF900895CF92DF92EF92FF920F9350
:103F80001F93CF93DF93EC018B017A010E941921DB
:103F9000811133C0E114F10439F0F701808191817E
:103FA000081B190BC80FD91FC12CD12C01151105E5
:103FB00019F18091E80085FD16C08091E8008B77AB
:103FC0008093E800E114F10449F0F70180819181C8
:103FD000C80ED91ED182C08285E00FC00E9419216F
:103FE000882321F30AC08091F100899301501109BF
:103FF000FFEFCF1ADF0ADACF80E0DF91CF911F9178
:104000000F91FF90EF90DF90CF900895209175026F
:10401000309176022617370748F06115710539F49B
:104020002091E8002E772093E80001C0B901FC013F
:1040300020E06115710579F180916E028823F1F11C
:104040008530F1F18091E80083FD3CC08091E8006B
:1040500082FD2EC08091E80080FFEBCF2091F3001D
:104060008091F20090E0922B6115710551F088303B
:10407000910538F421912093F10061507109019666
:10408000F3CF21E0089709F020E08091E8008E77D7
:104090008093E800CECF2111CFCF0AC080916E026D
:1040A000882361F0853061F08091E80083FD0AC0CB
:1040B0008091E80082FFF2CF80E0089582E00895C9
:1040C00083E0089581E00895209175023091760291
:1040D0002617370748F06115710539F42091E8007B
:1040E0002E772093E80001C0B901FC0120E06115A2
:1040F000710591F180916E02882309F440C08530EA
:1041000009F43FC08091E80083FD3DC08091E80044
:1041100082FD2FC08091E80080FFE9CF2091F3005D
:104120008091F20090E0922B6115710559F0883072
:10413000910540F424912093F1003196615071096A
:104140000196F2CF21E0089709F020E08091E80085
:104150008E778093E800CBCF2111CCCF0AC080911D
:104160006E02882361F0853061F08091E80083FD64
:104170000AC08091E80082FFF2CF80E0089582E0DB
:10418000089583E0089581E00895982F973068F5A9
:104190009093E900981739F07091EC002091ED00B0
:1041A0005091F00003C0242F762F50E021FD02C073
:1041B0009F5FECCF3091EB003E7F3093EB0030916E
:1041C000ED003D7F3093ED003091EB003160309396
:1041D000EB007093EC002093ED005093F0002091E1
:1041E000EE0027FDE5CF80E008958F708093E90011
:1041F00081E0089580916F0287FF11C08091E800EF
:1042000082FD05C080916E028111F8CF11C08091AE
:10421000E8008B770BC080916E02882349F0809173
:10422000E80080FFF8CF8091E8008E778093E80067
:1042300008952091E4003091E50095E64091EC006E
:10424000842F817040FF23C08091E80080FD1DC055
:1042500080916E02882399F0853099F08091EB006F
:1042600085FD11C04091E4005091E5002417350709
:1042700029F3915011F09A01E1CF84E0089582E092
:10428000089583E0089581E0089580E008954091C5
:10429000E80042FFDDCF08950E94BA210E94C221AA
:1042A000E0EEF0E0808181608083E8EDF0E08081E5
:1042B0008F77808319BCA7EDB0E08C918E7F8C93B3
:1042C00080818F7E808310926D0208950F931F93DB
:1042D000CF93DF930E94BA210E94C221C8EDD0E0A3
:1042E00088818F77888388818068888388818F7DA3
:1042F000888319BC10926E0210926A0210926C02AE
:1043000010926B0200EE10E0F80180818B7F8083B9
:1043100088818160888342E060E080E00E94C5205F
:10432000E1EEF0E080818E7F8083E2EEF0E080813C
:1043300081608083808188608083F80180818E7FA6
:104340008083888180618883DF91CF911F910F9155
:104350000895E8EDF0E080818F7E8083E7EDF0E066
:1043600080818160808384E082BF81E080936D02E0
:104370000C946621E8EDF0E080818E7F80831092BE
:10438000E20008951092DA001092E10008951F9261
:104390000F920FB60F9211242F933F934F935F9379
:1043A0006F937F938F939F93AF93BF93EF93FF93FD
:1043B0008091E10082FF0BC08091E20082FF07C084
:1043C0008091E1008B7F8093E1000E943D248091E9
:1043D000DA0080FF1FC08091D80080FF1BC0809151
:1043E000DA008E7F8093DA008091D90080FF0DC0C3
:1043F00080E189BD82E189BD09B400FEFDCF81E085
:1044000080936E020E949F1D05C019BC10926E021F
:104410000E94AD1D8091E10080FF19C08091E200F3
:1044200080FF15C08091E2008E7F8093E200809132
:10443000E20080618093E2008091D80080628093E6
:10444000D80019BC85E080936E020E94B11D809156
:10445000E10084FF30C08091E20084FF2CC080E145
:1044600089BD82E189BD09B400FEFDCF8091D800ED
:104470008F7D8093D8008091E1008F7E8093E10052
:104480008091E2008F7E8093E2008091E200816063
:104490008093E20080916A02882311F084E007C0D3
:1044A0008091E30087FD02C081E001C083E080933A
:1044B0006E020E94B21D8091E10083FF29C08091AD
:1044C000E20083FF25C08091E100877F8093E100B7
:1044D00082E080936E0210926A028091E1008E7FEA
:1044E0008093E1008091E2008E7F8093E2008091D2
:1044F000E20080618093E20042E060E080E00E94A0
:10450000C5208091F00088608093F0000E94B01D6B
:10451000FF91EF91BF91AF919F918F917F916F919B
:104520005F914F913F912F910F900FBE0F901F9071
:1045300018951F920F920FB60F9211242F933F934D
:104540004F935F936F937F938F939F93AF93BF939B
:10455000CF93DF93EF93FF93C091E900CF708091E9
:10456000EC00D82FD17080FDD0E81092E900809146
:10457000F000877F8093F00078940E94DD221092F3
:10458000E9008091F00088608093F000CD2BCF701F
:10459000C093E900FF91EF91DF91CF91BF91AF916F
:1045A0009F918F917F916F915F914F913F912F914B
:1045B0000F900FBE0F901F9018951F93CF93DF930E
:1045C000CDB7DEB7AA970FB6F894DEBF0FBECDBF4A
:1045D000EFE6F2E08091F100819322E0E737F20705
:1045E000C9F70E94C71D8091E80083FF2EC180910A
:1045F0006F0290917002492F50E04A30510508F047
:1046000024C1FA01ED57FF4F0C946D24803821F03E
:10461000823809F01AC108C080916B0290916C0237
:10462000992389F082600FC0809173028F70873068
:1046300008F00BC18093E9008091EB0085FB88278F
:1046400080F91092E9009091E800977F9093E8003C
:104650008093F1001092F100D1C0282F2D7F09F036
:10466000F4C0882319F0823061F0EFC080917102AC
:10467000813009F0EAC0933009F080E080936C0249
:104680002EC08091710281112AC0809173028F70B7
:104690002FEF280F263008F0D8C08093E900209132
:1046A000EB0020FF1CC0933021F48091EB0080626E
:1046B00014C09091EB0090619093EB0021E030E00A
:1046C000A90102C0440F551F8A95E2F74093EA0002
:1046D0001092EA008091EB0088608093EB001092CA
:1046E000E9008091E800877F8093E8000E94FA202B
:1046F000ACC08111AAC0109171021F778091E300B4
:104700008078812B8093E3008091E800877F8093FD
:10471000E8000E94FA208091E80080FFFCCF8091A1
:10472000E30080688093E300111102C082E001C0C1
:1047300083E080936E0289C08058823008F085C083
:1047400080917102909172028C3D53E0950779F54A
:1047500083E08A838AE289834FB7F894DE01139657
:1047600020E03EE051E2E32FF0E050935700E49167
:1047700020FF03C0E295EF703F5FEF708E2F90E057
:10478000EA3010F0C79601C0C0968D939D932F5FBD
:10479000243149F74FBF8091E800877F8093E8007C
:1047A0006AE270E0CE0101960E94062016C0609178
:1047B000730270917402AE014F5F5F4F0E94021F3F
:1047C000BC01892B09F441C09091E800977F909338
:1047D000E80089819A810E9464208091E8008B77AB
:1047E0008093E80032C0803881F58091E800877FAF
:1047F0008093E80080916A028093F1008091E80044
:104800008E7772CF811121C08091710290917202D6
:1048100099270297D4F48091E800877F8093E8007D
:104820008091710280936A020E94FA2080916A024C
:10483000811106C08091E30087FD02C081E001C0C4
:1048400084E080936E020E94B31D8091E80083FF94
:104850000AC08091E800877F8093E8008091EB0098
:1048600080628093EB00AA960FB6F894DEBF0FBE6D
:10487000CDBFDF91CF911F9108950895CF9380917F
:104880006E028823A1F0C091E900CF709091EC00F6
:10489000892F817090FD80E8C82B1092E9008091EB
:1048A000E80083FD0E94DD22CF70C093E900CF9124
:1048B000089597FB072E16F4009407D077FD09D0D2
:1048C0000E947A2407FC05D03EF4909581959F4F75
:1048D0000895709561957F4F0895EE0FFF1F059025
:1048E000F491E02D0994692796276927782787276F
:1048F00078270895AA1BBB1B51E107C0AA1FBB1F45
:10490000A617B70710F0A61BB70B881F991F5A955B
:10491000A9F780959095BC01CD010895F999FECF36
:1049200092BD81BDF89A992780B50895A8E1B0E0BD
:1049300042E050E00C94C224262FF999FECF92BD9C
:1049400081BDF89A019700B4021639F01FBA20BD54
:104950000FB6F894FA9AF99A0FBE08950396272F86
:104960000E949D240E949C24252F0E949D24242F78
:104970000C949D240196272F0E949D240C949C2426
:10498000DC01CB01FC01F999FECF06C0F2BDE1BD0F
:10499000F89A319600B40D9241505040B8F70895FE
:0449A000F894FFCFB9
:1049A4002808641E140A321E3902EF1C4B1D2C1DEC
:1049B400281D241D01E200E900EA00B500B600B795
:1049C40000CD008301CC008A0192019401210223CD
:1049D4000224022502260227022A02B300B4006F31
:1049E400007000818283F7F4F1F0676636353497FE
:1049F40096949593313292F6F5E200E900EA00B517
:104A040000B600B700CD008301CC008A0192019466
:104A1400012102230224022502260227022A02B3CC
:104A240000B4006F00700081828340227B2C058FCC
:0A4A340004B10434044D046D0400C5
:00000001FF
